{"abi":[{"type":"constructor","inputs":[{"name":"initialOwner","type":"address","internalType":"address"},{"name":"factory","type":"address","internalType":"address"},{"name":"asset_","type":"address","internalType":"address"},{"name":"symbol_","type":"string","internalType":"string"},{"name":"name_","type":"string","internalType":"string"},{"name":"holdTime_","type":"uint256","internalType":"uint256"},{"name":"maxActionsPerBlock_","type":"uint256","internalType":"uint256"},{"name":"router_","type":"address","internalType":"address"},{"name":"tokens_","type":"address[]","internalType":"address[]"},{"name":"weights_","type":"uint256[]","internalType":"uint256[]"}],"stateMutability":"nonpayable"},{"type":"function","name":"actionsPerBlock","inputs":[{"name":"","type":"uint256","internalType":"uint256"}],"outputs":[{"name":"","type":"uint256","internalType":"uint256"}],"stateMutability":"view"},{"type":"function","name":"allowance","inputs":[{"name":"owner","type":"address","internalType":"address"},{"name":"spender","type":"address","internalType":"address"}],"outputs":[{"name":"","type":"uint256","internalType":"uint256"}],"stateMutability":"view"},{"type":"function","name":"approve","inputs":[{"name":"spender","type":"address","internalType":"address"},{"name":"amount","type":"uint256","internalType":"uint256"}],"outputs":[{"name":"","type":"bool","internalType":"bool"}],"stateMutability":"nonpayable"},{"type":"function","name":"asset","inputs":[],"outputs":[{"name":"","type":"address","internalType":"address"}],"stateMutability":"view"},{"type":"function","name":"balanceOf","inputs":[{"name":"account","type":"address","internalType":"address"}],"outputs":[{"name":"","type":"uint256","internalType":"uint256"}],"stateMutability":"view"},{"type":"function","name":"convertToAssets","inputs":[{"name":"shares","type":"uint256","internalType":"uint256"}],"outputs":[{"name":"","type":"uint256","internalType":"uint256"}],"stateMutability":"view"},{"type":"function","name":"convertToShares","inputs":[{"name":"assets","type":"uint256","internalType":"uint256"}],"outputs":[{"name":"","type":"uint256","internalType":"uint256"}],"stateMutability":"view"},{"type":"function","name":"decimals","inputs":[],"outputs":[{"name":"","type":"uint8","internalType":"uint8"}],"stateMutability":"view"},{"type":"function","name":"decreaseAllowance","inputs":[{"name":"spender","type":"address","internalType":"address"},{"name":"subtractedValue","type":"uint256","internalType":"uint256"}],"outputs":[{"name":"","type":"bool","internalType":"bool"}],"stateMutability":"nonpayable"},{"type":"function","name":"deposit","inputs":[{"name":"assets","type":"uint256","internalType":"uint256"},{"name":"receiver","type":"address","internalType":"address"}],"outputs":[{"name":"","type":"uint256","internalType":"uint256"}],"stateMutability":"nonpayable"},{"type":"function","name":"depositAndOperate","inputs":[{"name":"assets","type":"uint256","internalType":"uint256"},{"name":"receiver","type":"address","internalType":"address"}],"outputs":[{"name":"","type":"uint256","internalType":"uint256"}],"stateMutability":"nonpayable"},{"type":"function","name":"getAssets","inputs":[],"outputs":[{"name":"","type":"uint256[]","internalType":"uint256[]"}],"stateMutability":"view"},{"type":"function","name":"getBalances","inputs":[],"outputs":[{"name":"","type":"uint256[]","internalType":"uint256[]"}],"stateMutability":"view"},{"type":"function","name":"getTokens","inputs":[],"outputs":[{"name":"","type":"address[]","internalType":"address[]"}],"stateMutability":"view"},{"type":"function","name":"getWeights","inputs":[],"outputs":[{"name":"","type":"uint256[]","internalType":"uint256[]"}],"stateMutability":"view"},{"type":"function","name":"holdTime","inputs":[],"outputs":[{"name":"","type":"uint256","internalType":"uint256"}],"stateMutability":"view"},{"type":"function","name":"increaseAllowance","inputs":[{"name":"spender","type":"address","internalType":"address"},{"name":"addedValue","type":"uint256","internalType":"uint256"}],"outputs":[{"name":"","type":"bool","internalType":"bool"}],"stateMutability":"nonpayable"},{"type":"function","name":"lastBuyTimestamp","inputs":[{"name":"","type":"address","internalType":"address"}],"outputs":[{"name":"","type":"uint256","internalType":"uint256"}],"stateMutability":"view"},{"type":"function","name":"maxActionsPerBlock","inputs":[],"outputs":[{"name":"","type":"uint256","internalType":"uint256"}],"stateMutability":"view"},{"type":"function","name":"maxDeposit","inputs":[{"name":"","type":"address","internalType":"address"}],"outputs":[{"name":"","type":"uint256","internalType":"uint256"}],"stateMutability":"view"},{"type":"function","name":"maxMint","inputs":[{"name":"","type":"address","internalType":"address"}],"outputs":[{"name":"","type":"uint256","internalType":"uint256"}],"stateMutability":"view"},{"type":"function","name":"maxRedeem","inputs":[{"name":"owner","type":"address","internalType":"address"}],"outputs":[{"name":"","type":"uint256","internalType":"uint256"}],"stateMutability":"view"},{"type":"function","name":"maxWithdraw","inputs":[{"name":"owner","type":"address","internalType":"address"}],"outputs":[{"name":"","type":"uint256","internalType":"uint256"}],"stateMutability":"view"},{"type":"function","name":"mint","inputs":[{"name":"shares","type":"uint256","internalType":"uint256"},{"name":"receiver","type":"address","internalType":"address"}],"outputs":[{"name":"","type":"uint256","internalType":"uint256"}],"stateMutability":"nonpayable"},{"type":"function","name":"name","inputs":[],"outputs":[{"name":"","type":"string","internalType":"string"}],"stateMutability":"view"},{"type":"function","name":"operateBatch","inputs":[{"name":"isBuy_","type":"bool[]","internalType":"bool[]"},{"name":"tokens_","type":"address[]","internalType":"address[]"},{"name":"assets_","type":"uint256[]","internalType":"uint256[]"}],"outputs":[],"stateMutability":"nonpayable"},{"type":"function","name":"owner","inputs":[],"outputs":[{"name":"","type":"address","internalType":"address"}],"stateMutability":"view"},{"type":"function","name":"previewDeposit","inputs":[{"name":"assets","type":"uint256","internalType":"uint256"}],"outputs":[{"name":"","type":"uint256","internalType":"uint256"}],"stateMutability":"view"},{"type":"function","name":"previewMint","inputs":[{"name":"shares","type":"uint256","internalType":"uint256"}],"outputs":[{"name":"","type":"uint256","internalType":"uint256"}],"stateMutability":"view"},{"type":"function","name":"previewRedeem","inputs":[{"name":"shares","type":"uint256","internalType":"uint256"}],"outputs":[{"name":"","type":"uint256","internalType":"uint256"}],"stateMutability":"view"},{"type":"function","name":"previewWithdraw","inputs":[{"name":"assets","type":"uint256","internalType":"uint256"}],"outputs":[{"name":"","type":"uint256","internalType":"uint256"}],"stateMutability":"view"},{"type":"function","name":"redeem","inputs":[{"name":"shares","type":"uint256","internalType":"uint256"},{"name":"receiver","type":"address","internalType":"address"},{"name":"owner","type":"address","internalType":"address"}],"outputs":[{"name":"","type":"uint256","internalType":"uint256"}],"stateMutability":"nonpayable"},{"type":"function","name":"renounceOwnership","inputs":[],"outputs":[],"stateMutability":"nonpayable"},{"type":"function","name":"router","inputs":[],"outputs":[{"name":"","type":"address","internalType":"contract IUniswapV2Router02"}],"stateMutability":"view"},{"type":"function","name":"symbol","inputs":[],"outputs":[{"name":"","type":"string","internalType":"string"}],"stateMutability":"view"},{"type":"function","name":"tokens","inputs":[{"name":"","type":"uint256","internalType":"uint256"}],"outputs":[{"name":"","type":"address","internalType":"address"}],"stateMutability":"view"},{"type":"function","name":"totalAssets","inputs":[],"outputs":[{"name":"","type":"uint256","internalType":"uint256"}],"stateMutability":"view"},{"type":"function","name":"totalSupply","inputs":[],"outputs":[{"name":"","type":"uint256","internalType":"uint256"}],"stateMutability":"view"},{"type":"function","name":"transfer","inputs":[{"name":"to","type":"address","internalType":"address"},{"name":"amount","type":"uint256","internalType":"uint256"}],"outputs":[{"name":"","type":"bool","internalType":"bool"}],"stateMutability":"nonpayable"},{"type":"function","name":"transferFrom","inputs":[{"name":"from","type":"address","internalType":"address"},{"name":"to","type":"address","internalType":"address"},{"name":"amount","type":"uint256","internalType":"uint256"}],"outputs":[{"name":"","type":"bool","internalType":"bool"}],"stateMutability":"nonpayable"},{"type":"function","name":"transferOwnership","inputs":[{"name":"newOwner","type":"address","internalType":"address"}],"outputs":[],"stateMutability":"nonpayable"},{"type":"function","name":"weights","inputs":[{"name":"","type":"uint256","internalType":"uint256"}],"outputs":[{"name":"","type":"uint256","internalType":"uint256"}],"stateMutability":"view"},{"type":"function","name":"withdraw","inputs":[{"name":"assets","type":"uint256","internalType":"uint256"},{"name":"receiver","type":"address","internalType":"address"},{"name":"owner","type":"address","internalType":"address"}],"outputs":[{"name":"","type":"uint256","internalType":"uint256"}],"stateMutability":"nonpayable"},{"type":"event","name":"Approval","inputs":[{"name":"owner","type":"address","indexed":true,"internalType":"address"},{"name":"spender","type":"address","indexed":true,"internalType":"address"},{"name":"value","type":"uint256","indexed":false,"internalType":"uint256"}],"anonymous":false},{"type":"event","name":"Buy","inputs":[{"name":"token","type":"address","indexed":true,"internalType":"address"},{"name":"sender","type":"address","indexed":true,"internalType":"address"},{"name":"amountBought","type":"uint256","indexed":false,"internalType":"uint256"},{"name":"amountSold","type":"uint256","indexed":false,"internalType":"uint256"}],"anonymous":false},{"type":"event","name":"Deposit","inputs":[{"name":"sender","type":"address","indexed":true,"internalType":"address"},{"name":"owner","type":"address","indexed":true,"internalType":"address"},{"name":"assets","type":"uint256","indexed":false,"internalType":"uint256"},{"name":"shares","type":"uint256","indexed":false,"internalType":"uint256"}],"anonymous":false},{"type":"event","name":"OwnershipTransferred","inputs":[{"name":"previousOwner","type":"address","indexed":true,"internalType":"address"},{"name":"newOwner","type":"address","indexed":true,"internalType":"address"}],"anonymous":false},{"type":"event","name":"Sell","inputs":[{"name":"token","type":"address","indexed":true,"internalType":"address"},{"name":"sender","type":"address","indexed":true,"internalType":"address"},{"name":"amountSold","type":"uint256","indexed":false,"internalType":"uint256"},{"name":"amountBought","type":"uint256","indexed":false,"internalType":"uint256"}],"anonymous":false},{"type":"event","name":"TokenStatus","inputs":[{"name":"token","type":"address","indexed":true,"internalType":"address"},{"name":"status","type":"bool","indexed":false,"internalType":"bool"}],"anonymous":false},{"type":"event","name":"Transfer","inputs":[{"name":"from","type":"address","indexed":true,"internalType":"address"},{"name":"to","type":"address","indexed":true,"internalType":"address"},{"name":"value","type":"uint256","indexed":false,"internalType":"uint256"}],"anonymous":false},{"type":"event","name":"Withdraw","inputs":[{"name":"sender","type":"address","indexed":true,"internalType":"address"},{"name":"receiver","type":"address","indexed":true,"internalType":"address"},{"name":"owner","type":"address","indexed":true,"internalType":"address"},{"name":"assets","type":"uint256","indexed":false,"internalType":"uint256"},{"name":"shares","type":"uint256","indexed":false,"internalType":"uint256"}],"anonymous":false}],"bytecode":{"object":"0x60c06040523480156200001157600080fd5b50604051620037413803806200374183398101604081905262000034916200060d565b8787878787848484620000473362000159565b6004620000558382620007b6565b506005620000648282620007b6565b5050506000806200007b83620001a960201b60201c565b91509150816200008d5760126200008f565b805b60ff1660a05250506001600160a01b031660805260069190915560075550620000bc91508b905062000159565b600a80546001600160a01b0319166001600160a01b038516179055620000e382826200028e565b604051630114345160e21b81526001600160a01b038a1690630450d1449062000115908b908690869060040162000882565b600060405180830381600087803b1580156200013057600080fd5b505af115801562000145573d6000803e3d6000fd5b5050505050505050505050505050620009b6565b600080546001600160a01b038381166001600160a01b0319831681178455604051919092169283917f8be0079c531659141344cd1fd0a4f28419497f9722a3daafe3b4186f6b6457e09190a35050565b60408051600481526024810182526020810180516001600160e01b031663313ce56760e01b17905290516000918291829182916001600160a01b03871691620001f2916200091a565b600060405180830381855afa9150503d80600081146200022f576040519150601f19603f3d011682016040523d82523d6000602084013e62000234565b606091505b50915091508180156200024957506020815110155b15620002815760008180602001905181019062000267919062000938565b905060ff81116200027f576001969095509350505050565b505b5060009485945092505050565b815181518114620002d65760405162461bcd60e51b815260206004820152600d60248201526c1b195b99dd1a1cc81a591a5bdd609a1b60448201526064015b60405180910390fd5b6000805b82811015620003af57600b858281518110620002fa57620002fa62000952565b60209081029190910181015182546001810184556000938452919092200180546001600160a01b0319166001600160a01b039092169190911790558351600c908590839081106200034f576200034f62000952565b60209081029190910181015182546001810184556000938452919092200155835184908290811062000385576200038562000952565b6020026020010151826200039a91906200097e565b9150620003a7816200099a565b9050620002da565b508061271014620004035760405162461bcd60e51b815260206004820152601560248201527f6e6f74206369656e746f20706572206369656e746f00000000000000000000006044820152606401620002cd565b50505050565b80516001600160a01b03811681146200042157600080fd5b919050565b634e487b7160e01b600052604160045260246000fd5b604051601f8201601f191681016001600160401b038111828210171562000467576200046762000426565b604052919050565b60005b838110156200048c57818101518382015260200162000472565b50506000910152565b600082601f830112620004a757600080fd5b81516001600160401b03811115620004c357620004c362000426565b620004d8601f8201601f19166020016200043c565b818152846020838601011115620004ee57600080fd5b620005018260208301602087016200046f565b949350505050565b60006001600160401b0382111562000525576200052562000426565b5060051b60200190565b600082601f8301126200054157600080fd5b815160206200055a620005548362000509565b6200043c565b82815260059290921b840181019181810190868411156200057a57600080fd5b8286015b84811015620005a057620005928162000409565b83529183019183016200057e565b509695505050505050565b600082601f830112620005bd57600080fd5b81516020620005d0620005548362000509565b82815260059290921b84018101918181019086841115620005f057600080fd5b8286015b84811015620005a05780518352918301918301620005f4565b6000806000806000806000806000806101408b8d0312156200062e57600080fd5b620006398b62000409565b99506200064960208c0162000409565b98506200065960408c0162000409565b60608c01519098506001600160401b03808211156200067757600080fd5b620006858e838f0162000495565b985060808d01519150808211156200069c57600080fd5b620006aa8e838f0162000495565b975060a08d0151965060c08d01519550620006c860e08e0162000409565b94506101008d0151915080821115620006e057600080fd5b620006ee8e838f016200052f565b93506101208d01519150808211156200070657600080fd5b50620007158d828e01620005ab565b9150509295989b9194979a5092959850565b600181811c908216806200073c57607f821691505b6020821081036200075d57634e487b7160e01b600052602260045260246000fd5b50919050565b601f821115620007b157600081815260208120601f850160051c810160208610156200078c5750805b601f850160051c820191505b81811015620007ad5782815560010162000798565b5050505b505050565b81516001600160401b03811115620007d257620007d262000426565b620007ea81620007e3845462000727565b8462000763565b602080601f831160018114620008225760008415620008095750858301515b600019600386901b1c1916600185901b178555620007ad565b600085815260208120601f198616915b82811015620008535788860151825594840194600190910190840162000832565b5085821015620008725787850151600019600388901b60f8161c191681555b5050505050600190811b01905550565b6001600160a01b038481168252606060208084018290528551918401829052600092868201929091906080860190855b81811015620008d2578551851683529483019491830191600101620008b2565b5050858103604087015286518082529082019350915080860160005b838110156200090c57815185529382019390820190600101620008ee565b509298975050505050505050565b600082516200092e8184602087016200046f565b9190910192915050565b6000602082840312156200094b57600080fd5b5051919050565b634e487b7160e01b600052603260045260246000fd5b634e487b7160e01b600052601160045260246000fd5b8082018082111562000994576200099462000968565b92915050565b600060018201620009af57620009af62000968565b5060010190565b60805160a051612d2662000a1b60003960006109ca01526000818161037c0152818161071001528181610e97015281816114c9015281816115b3015281816117c80152818161184a01528181611a5201528181611f0901526120680152612d266000f3fe608060405234801561001057600080fd5b50600436106102685760003560e01c806370a0823111610151578063b5f163ff116100c3578063d905777e11610087578063d905777e14610530578063dd62ed3e14610543578063ef7898d014610556578063ef8b30f71461050a578063f2fde38b14610576578063f887ea401461058957600080fd5b8063b5f163ff146104e4578063ba087652146104f7578063c63d75b6146103c7578063c6e6f5921461050a578063ce96cb771461051d57600080fd5b8063a457c2d711610115578063a457c2d71461047a578063a7dc2cf51461048d578063a9059cbb14610496578063aa6ca808146104a9578063b3d7f6b9146104be578063b460af94146104d157600080fd5b806370a082311461041d578063715018a6146104465780638da5cb5b1461044e57806394bf804d1461045f57806395d89b411461047257600080fd5b8063288fcba1116101ea578063402d267d116101ae578063402d267d146103c75780634cdad506146102b65780634f64b2be146103dc5780635da9b72f146103ef57806367e4ac2c146104025780636e553f651461040a57600080fd5b8063288fcba11461032b5780632929ee821461034b578063313ce5671461036057806338d52e0f1461037a57806339509351146103b457600080fd5b8063097d515511610231578063097d5155146102ec5780630a28a477146102f557806318160ddd1461030857806322acb8671461031057806323b872dd1461031857600080fd5b8062113e081461026d57806301e1d1141461028b57806306fdde03146102a157806307a2d13a146102b6578063095ea7b3146102c9575b600080fd5b61027561059c565b6040516102829190612547565b60405180910390f35b6102936106b0565b604051908152602001610282565b6102a96107aa565b60405161028291906125af565b6102936102c43660046125e2565b61083c565b6102dc6102d7366004612617565b61084f565b6040519015158152602001610282565b61029360065481565b6102936103033660046125e2565b610867565b600354610293565b610275610874565b6102dc610326366004612641565b6108cb565b6102936103393660046125e2565b60096020526000908152604090205481565b61035e6103593660046127c3565b6108ef565b005b6103686109c2565b60405160ff9091168152602001610282565b7f00000000000000000000000000000000000000000000000000000000000000005b6040516001600160a01b039091168152602001610282565b6102dc6103c2366004612617565b6109f3565b6102936103d53660046128a9565b5060001990565b61039c6103ea3660046125e2565b610a15565b6102936103fd3660046128c4565b610a3f565b610275610a57565b6102936104183660046128c4565b610af2565b61029361042b3660046128a9565b6001600160a01b031660009081526001602052604090205490565b61035e610b0c565b6000546001600160a01b031661039c565b61029361046d3660046128c4565b610b20565b6102a9610b3a565b6102dc610488366004612617565b610b49565b61029360075481565b6102dc6104a4366004612617565b610bc4565b6104b1610bd2565b6040516102829190612934565b6102936104cc3660046125e2565b610c33565b6102936104df366004612947565b610c40565b6102936104f23660046125e2565b610cbc565b610293610505366004612947565b610cdd565b6102936105183660046125e2565b610d51565b61029361052b3660046128a9565b610d5e565b61029361053e3660046128a9565b610d82565b610293610551366004612983565b610da0565b6102936105643660046128a9565b60086020526000908152604090205481565b61035e6105843660046128a9565b610dcb565b600a5461039c906001600160a01b031681565b600b5460609060008167ffffffffffffffff8111156105bd576105bd61267d565b6040519080825280602002602001820160405280156105e6578160200160208202803683370190505b50905060005b828110156106a957600b8181548110610607576106076129ad565b6000918252602090912001546040516370a0823160e01b81523060048201526001600160a01b03909116906370a0823190602401602060405180830381865afa158015610658573d6000803e3d6000fd5b505050506040513d601f19601f8201168201806040525081019061067c91906129c3565b82828151811061068e5761068e6129ad565b60209081029190910101526106a2816129f2565b90506105ec565b5092915050565b600b5460009081805b8281101561070d576106f1600b82815481106106d7576106d76129ad565b6000918252602090912001546001600160a01b0316610e44565b6106fb9083612a0b565b9150610706816129f2565b90506106b9565b507f00000000000000000000000000000000000000000000000000000000000000006040516370a0823160e01b81523060048201526001600160a01b0391909116906370a0823190602401602060405180830381865afa158015610775573d6000803e3d6000fd5b505050506040513d601f19601f8201168201806040525081019061079991906129c3565b6107a39082612a0b565b9392505050565b6060600480546107b990612a1e565b80601f01602080910402602001604051908101604052809291908181526020018280546107e590612a1e565b80156108325780601f1061080757610100808354040283529160200191610832565b820191906000526020600020905b81548152906001019060200180831161081557829003601f168201915b5050505050905090565b6000610849826000611001565b92915050565b60003361085d81858561103b565b5060019392505050565b600061084982600161115f565b6060600c80548060200260200160405190810160405280929190818152602001828054801561083257602002820191906000526020600020905b8154815260200190600101908083116108ae575050505050905090565b6000336108d985828561118f565b6108e4858585611209565b506001949350505050565b6108f76113bf565b82518251811480156109095750815181145b61094a5760405162461bcd60e51b815260206004820152600d60248201526c1b195b99dd1a1cc81a591a5bdd609a1b60448201526064015b60405180910390fd5b60005b818110156109bb576109ab85828151811061096a5761096a6129ad565b6020026020010151858381518110610984576109846129ad565b602002602001015185848151811061099e5761099e6129ad565b6020026020010151611419565b6109b4816129f2565b905061094d565b5050505050565b60006109ee817f0000000000000000000000000000000000000000000000000000000000000000612a58565b905090565b60003361085d818585610a068383610da0565b610a109190612a0b565b61103b565b600b8181548110610a2557600080fd5b6000918252602090912001546001600160a01b0316905081565b600080610a4c8484610af2565b90506107a384611438565b600b5460609060008167ffffffffffffffff811115610a7857610a7861267d565b604051908082528060200260200182016040528015610aa1578160200160208202803683370190505b50905060005b828110156106a957610ac5600b82815481106106d7576106d76129ad565b828281518110610ad757610ad76129ad565b6020908102919091010152610aeb816129f2565b9050610aa7565b600080610afe84610d51565b90506107a3338486846114c4565b610b146113bf565b610b1e6000611556565b565b600080610b2c84610c33565b90506107a3338483876114c4565b6060600580546107b990612a1e565b60003381610b578286610da0565b905083811015610bb75760405162461bcd60e51b815260206004820152602560248201527f45524332303a2064656372656173656420616c6c6f77616e63652062656c6f77604482015264207a65726f60d81b6064820152608401610941565b6108e4828686840361103b565b60003361085d818585611209565b6060600b80548060200260200160405190810160405280929190818152602001828054801561083257602002820191906000526020600020905b81546001600160a01b03168152600190910190602001808311610c0c575050505050905090565b6000610849826001611001565b6000610c4b82610d5e565b841115610c9a5760405162461bcd60e51b815260206004820152601f60248201527f455243343632363a207769746864726177206d6f7265207468616e206d6178006044820152606401610941565b6000610ca585610867565b9050610cb433858588856115a6565b949350505050565b600c8181548110610ccc57600080fd5b600091825260209091200154905081565b6000610ce882610d82565b841115610d375760405162461bcd60e51b815260206004820152601d60248201527f455243343632363a2072656465656d206d6f7265207468616e206d61780000006044820152606401610941565b6000610d428561083c565b9050610cb433858584896115a6565b600061084982600061115f565b6001600160a01b038116600090815260016020526040812054610849906000611001565b6001600160a01b038116600090815260016020526040812054610849565b6001600160a01b03918216600090815260026020908152604080832093909416825291909152205490565b610dd36113bf565b6001600160a01b038116610e385760405162461bcd60e51b815260206004820152602660248201527f4f776e61626c653a206e6577206f776e657220697320746865207a65726f206160448201526564647265737360d01b6064820152608401610941565b610e4181611556565b50565b604080516002808252606082018352600092839291906020830190803683370190505090508281600081518110610e7d57610e7d6129ad565b6001600160a01b03909216602092830291909101909101527f000000000000000000000000000000000000000000000000000000000000000081600181518110610ec957610ec96129ad565b6001600160a01b0392831660209182029290920101526040516370a0823160e01b81523060048201526000918516906370a0823190602401602060405180830381865afa158015610f1e573d6000803e3d6000fd5b505050506040513d601f19601f82011682018060405250810190610f4291906129c3565b905080600003610f56575060009392505050565b600a5460405163d06ca61f60e01b81526000916001600160a01b03169063d06ca61f90610f899085908790600401612a71565b600060405180830381865afa158015610fa6573d6000803e3d6000fd5b505050506040513d6000823e601f3d908101601f19168201604052610fce9190810190612a8a565b90508060018251610fdf9190612b10565b81518110610fef57610fef6129ad565b60200260200101519350505050919050565b60006107a361100e6106b0565b611019906001612a0b565b6110256000600a612c07565b6003546110329190612a0b565b8591908561165f565b6001600160a01b03831661109d5760405162461bcd60e51b8152602060048201526024808201527f45524332303a20617070726f76652066726f6d20746865207a65726f206164646044820152637265737360e01b6064820152608401610941565b6001600160a01b0382166110fe5760405162461bcd60e51b815260206004820152602260248201527f45524332303a20617070726f766520746f20746865207a65726f206164647265604482015261737360f01b6064820152608401610941565b6001600160a01b0383811660008181526002602090815260408083209487168084529482529182902085905590518481527f8c5be1e5ebec7d5bd14f71427d1e84f3dd0314c0f7b2291e5b200ac8c7c3b925910160405180910390a3505050565b60006107a361116f82600a612c07565b60035461117c9190612a0b565b6111846106b0565b611032906001612a0b565b600061119b8484610da0565b9050600019811461120357818110156111f65760405162461bcd60e51b815260206004820152601d60248201527f45524332303a20696e73756666696369656e7420616c6c6f77616e63650000006044820152606401610941565b611203848484840361103b565b50505050565b6001600160a01b03831661126d5760405162461bcd60e51b815260206004820152602560248201527f45524332303a207472616e736665722066726f6d20746865207a65726f206164604482015264647265737360d81b6064820152608401610941565b6001600160a01b0382166112cf5760405162461bcd60e51b815260206004820152602360248201527f45524332303a207472616e7366657220746f20746865207a65726f206164647260448201526265737360e81b6064820152608401610941565b6112da8383836116bc565b6001600160a01b038316600090815260016020526040902054818110156113525760405162461bcd60e51b815260206004820152602660248201527f45524332303a207472616e7366657220616d6f756e7420657863656564732062604482015265616c616e636560d01b6064820152608401610941565b6001600160a01b0380851660008181526001602052604080822086860390559286168082529083902080548601905591517fddf252ad1be2c89b69c2b068fc378daa952ba7f163c4a11628f55a4df523b3ef906113b29086815260200190565b60405180910390a3611203565b6000546001600160a01b03163314610b1e5760405162461bcd60e51b815260206004820181905260248201527f4f776e61626c653a2063616c6c6572206973206e6f7420746865206f776e65726044820152606401610941565b82156114295761120382826117a1565b61120382826119ff565b505050565b600b5460005b81811015611433576000612710600c838154811061145e5761145e6129ad565b9060005260206000200154856114749190612c16565b61147e9190612c43565b90506114b1600b8381548110611496576114966129ad565b6000918252602090912001546001600160a01b0316826117a1565b5050806114bd906129f2565b905061143e565b6114f07f0000000000000000000000000000000000000000000000000000000000000000853085611dcc565b6114fa8382611e37565b826001600160a01b0316846001600160a01b03167fdcbc1c05240f31ff3ad067ef1ee35ce4997762752e3a095284754544f4c709d78484604051611548929190918252602082015260400190565b60405180910390a350505050565b600080546001600160a01b038381166001600160a01b0319831681178455604051919092169283917f8be0079c531659141344cd1fd0a4f28419497f9722a3daafe3b4186f6b6457e09190a35050565b6115af82611f05565b60007f00000000000000000000000000000000000000000000000000000000000000006040516370a0823160e01b81523060048201526001600160a01b0391909116906370a0823190602401602060405180830381865afa158015611618573d6000803e3d6000fd5b505050506040513d601f19601f8201168201806040525081019061163c91906129c3565b90508083111561164a578092505b6116578686868686612035565b505050505050565b60008061166d8686866120f5565b9050600183600281111561168357611683612c65565b1480156116a057506000848061169b5761169b612c2d565b868809115b156116b3576116b0600182612a0b565b90505b95945050505050565b6006546116c99042612a0b565b6001600160a01b0384166000908152600860205260409020541061172f5760405162461bcd60e51b815260206004820152601760248201527f686f6c64206675636b696e672073616e647769636865720000000000000000006044820152606401610941565b6001600160a01b038216600090815260086020908152604080832042905560075443845260099092529091205411156114335760405162461bcd60e51b8152602060048201526014602482015273189b1bd8dac8185b1c9958591e481d1c9859195960621b6044820152606401610941565b604080516002808252606080830184529260009291906020830190803683370190505090507f0000000000000000000000000000000000000000000000000000000000000000816000815181106117fa576117fa6129ad565b60200260200101906001600160a01b031690816001600160a01b031681525050838160018151811061182e5761182e6129ad565b6001600160a01b039092166020928302919091019091015260007f0000000000000000000000000000000000000000000000000000000000000000600a5460405163095ea7b360e01b81526001600160a01b0391821660048201526024810187905291169063095ea7b3906044016020604051808303816000875af11580156118bb573d6000803e3d6000fd5b505050506040513d601f19601f820116820180604052508101906118df9190612c7b565b50600a546040516338ed173960e01b81526001600160a01b03909116906338ed1739906119189087908590879030904290600401612c98565b6000604051808303816000875af1158015611937573d6000803e3d6000fd5b505050506040513d6000823e601f3d908101601f1916820160405261195f9190810190612a8a565b9250336001600160a01b0316856001600160a01b03167f89f5adc174562e07c9c9b1cae7109bbecb21cf9d1b2847e550042b8653c54a0e85600187516119a59190612b10565b815181106119b5576119b56129ad565b6020026020010151866000815181106119d0576119d06129ad565b60200260200101516040516119ef929190918252602082015260400190565b60405180910390a3505092915050565b604080516002808252606080830184529260009291906020830190803683370190505090508381600081518110611a3857611a386129ad565b6001600160a01b03909216602092830291909101909101527f000000000000000000000000000000000000000000000000000000000000000081600181518110611a8457611a846129ad565b6001600160a01b0392831660209182029290920101526040516370a0823160e01b81523060048201526000918616906370a0823190602401602060405180830381865afa158015611ad9573d6000803e3d6000fd5b505050506040513d601f19601f82011682018060405250810190611afd91906129c3565b600a5460405163095ea7b360e01b81526001600160a01b0391821660048201526024810183905291925086169063095ea7b3906044016020604051808303816000875af1158015611b52573d6000803e3d6000fd5b505050506040513d601f19601f82011682018060405250810190611b769190612c7b565b50600a5460405163d06ca61f60e01b81526000916001600160a01b03169063d06ca61f90611baa9085908790600401612a71565b600060405180830381865afa158015611bc7573d6000803e3d6000fd5b505050506040513d6000823e601f3d908101601f19168201604052611bef9190810190612a8a565b905060008160018351611c029190612b10565b81518110611c1257611c126129ad565b6020026020010151905085811015611caa57600a54604051634401edf760e11b81526001600160a01b0390911690638803dbee90611c5c9084908790899030904290600401612c98565b6000604051808303816000875af1158015611c7b573d6000803e3d6000fd5b505050506040513d6000823e601f3d908101601f19168201604052611ca39190810190612a8a565b9450611d2c565b600a54604051634401edf760e11b81526001600160a01b0390911690638803dbee90611ce29089908790899030904290600401612c98565b6000604051808303816000875af1158015611d01573d6000803e3d6000fd5b505050506040513d6000823e601f3d908101601f19168201604052611d299190810190612a8a565b94505b336001600160a01b0316876001600160a01b03167fa082022e93cfcd9f1da5f9236718053910f7e840da080c789c7845698dc032ff87600081518110611d7457611d746129ad565b60200260200101518860018a51611d8b9190612b10565b81518110611d9b57611d9b6129ad565b6020026020010151604051611dba929190918252602082015260400190565b60405180910390a35050505092915050565b6040516001600160a01b03808516602483015283166044820152606481018290526112039085906323b872dd60e01b906084015b60408051601f198184030181529190526020810180516001600160e01b03166001600160e01b0319909316929092179091526121df565b6001600160a01b038216611e8d5760405162461bcd60e51b815260206004820152601f60248201527f45524332303a206d696e7420746f20746865207a65726f2061646472657373006044820152606401610941565b611e99600083836116bc565b8060036000828254611eab9190612a0b565b90915550506001600160a01b0382166000818152600160209081526040808320805486019055518481527fddf252ad1be2c89b69c2b068fc378daa952ba7f163c4a11628f55a4df523b3ef910160405180910390a35b5050565b60007f00000000000000000000000000000000000000000000000000000000000000006040516370a0823160e01b81523060048201526001600160a01b0391909116906370a0823190602401602060405180830381865afa158015611f6e573d6000803e3d6000fd5b505050506040513d601f19601f82011682018060405250810190611f9291906129c3565b905081811015611f0157611fa68183612b10565b600b5490925060005b81811015611203576000612710600c8381548110611fcf57611fcf6129ad565b906000526020600020015486611fe59190612c16565b611fef9190612c43565b9050612022600b8381548110612007576120076129ad565b6000918252602090912001546001600160a01b0316826119ff565b50508061202e906129f2565b9050611faf565b826001600160a01b0316856001600160a01b0316146120595761205983868361118f565b61206383826122b4565b61208e7f000000000000000000000000000000000000000000000000000000000000000085846123f4565b826001600160a01b0316846001600160a01b0316866001600160a01b03167ffbde797d201c681b91056529119e0b02407c7bb96a4a2c75c01fc9667232c8db85856040516120e6929190918252602082015260400190565b60405180910390a45050505050565b600080806000198587098587029250828110838203039150508060000361212f5783828161212557612125612c2d565b04925050506107a3565b8084116121765760405162461bcd60e51b81526020600482015260156024820152744d6174683a206d756c446976206f766572666c6f7760581b6044820152606401610941565b60008486880960026001871981018816978890046003810283188082028403028082028403028082028403028082028403028082028403029081029092039091026000889003889004909101858311909403939093029303949094049190911702949350505050565b6000612234826040518060400160405280602081526020017f5361666545524332303a206c6f772d6c6576656c2063616c6c206661696c6564815250856001600160a01b03166124249092919063ffffffff16565b90508051600014806122555750808060200190518101906122559190612c7b565b6114335760405162461bcd60e51b815260206004820152602a60248201527f5361666545524332303a204552433230206f7065726174696f6e20646964206e6044820152691bdd081cdd58d8d9595960b21b6064820152608401610941565b6001600160a01b0382166123145760405162461bcd60e51b815260206004820152602160248201527f45524332303a206275726e2066726f6d20746865207a65726f206164647265736044820152607360f81b6064820152608401610941565b612320826000836116bc565b6001600160a01b038216600090815260016020526040902054818110156123945760405162461bcd60e51b815260206004820152602260248201527f45524332303a206275726e20616d6f756e7420657863656564732062616c616e604482015261636560f01b6064820152608401610941565b6001600160a01b03831660008181526001602090815260408083208686039055600380548790039055518581529192917fddf252ad1be2c89b69c2b068fc378daa952ba7f163c4a11628f55a4df523b3ef910160405180910390a3505050565b6040516001600160a01b03831660248201526044810182905261143390849063a9059cbb60e01b90606401611e00565b6060610cb4848460008585600080866001600160a01b0316858760405161244b9190612cd4565b60006040518083038185875af1925050503d8060008114612488576040519150601f19603f3d011682016040523d82523d6000602084013e61248d565b606091505b509150915061249e878383876124a9565b979650505050505050565b60608315612518578251600003612511576001600160a01b0385163b6125115760405162461bcd60e51b815260206004820152601d60248201527f416464726573733a2063616c6c20746f206e6f6e2d636f6e74726163740000006044820152606401610941565b5081610cb4565b610cb4838381511561252d5781518083602001fd5b8060405162461bcd60e51b815260040161094191906125af565b6020808252825182820181905260009190848201906040850190845b8181101561257f57835183529284019291840191600101612563565b50909695505050505050565b60005b838110156125a657818101518382015260200161258e565b50506000910152565b60208152600082518060208401526125ce81604085016020870161258b565b601f01601f19169190910160400192915050565b6000602082840312156125f457600080fd5b5035919050565b80356001600160a01b038116811461261257600080fd5b919050565b6000806040838503121561262a57600080fd5b612633836125fb565b946020939093013593505050565b60008060006060848603121561265657600080fd5b61265f846125fb565b925061266d602085016125fb565b9150604084013590509250925092565b634e487b7160e01b600052604160045260246000fd5b604051601f8201601f1916810167ffffffffffffffff811182821017156126bc576126bc61267d565b604052919050565b600067ffffffffffffffff8211156126de576126de61267d565b5060051b60200190565b8015158114610e4157600080fd5b600082601f83011261270757600080fd5b8135602061271c612717836126c4565b612693565b82815260059290921b8401810191818101908684111561273b57600080fd5b8286015b8481101561275d57612750816125fb565b835291830191830161273f565b509695505050505050565b600082601f83011261277957600080fd5b81356020612789612717836126c4565b82815260059290921b840181019181810190868411156127a857600080fd5b8286015b8481101561275d57803583529183019183016127ac565b6000806000606084860312156127d857600080fd5b833567ffffffffffffffff808211156127f057600080fd5b818601915086601f83011261280457600080fd5b81356020612814612717836126c4565b82815260059290921b8401810191818101908a84111561283357600080fd5b948201945b8386101561285a57853561284b816126e8565b82529482019490820190612838565b9750508701359250508082111561287057600080fd5b61287c878388016126f6565b9350604086013591508082111561289257600080fd5b5061289f86828701612768565b9150509250925092565b6000602082840312156128bb57600080fd5b6107a3826125fb565b600080604083850312156128d757600080fd5b823591506128e7602084016125fb565b90509250929050565b600081518084526020808501945080840160005b838110156129295781516001600160a01b031687529582019590820190600101612904565b509495945050505050565b6020815260006107a360208301846128f0565b60008060006060848603121561295c57600080fd5b8335925061296c602085016125fb565b915061297a604085016125fb565b90509250925092565b6000806040838503121561299657600080fd5b61299f836125fb565b91506128e7602084016125fb565b634e487b7160e01b600052603260045260246000fd5b6000602082840312156129d557600080fd5b5051919050565b634e487b7160e01b600052601160045260246000fd5b600060018201612a0457612a046129dc565b5060010190565b80820180821115610849576108496129dc565b600181811c90821680612a3257607f821691505b602082108103612a5257634e487b7160e01b600052602260045260246000fd5b50919050565b60ff8181168382160190811115610849576108496129dc565b828152604060208201526000610cb460408301846128f0565b60006020808385031215612a9d57600080fd5b825167ffffffffffffffff811115612ab457600080fd5b8301601f81018513612ac557600080fd5b8051612ad3612717826126c4565b81815260059190911b82018301908381019087831115612af257600080fd5b928401925b8284101561249e57835182529284019290840190612af7565b81810381811115610849576108496129dc565b600181815b80851115612b5e578160001904821115612b4457612b446129dc565b80851615612b5157918102915b93841c9390800290612b28565b509250929050565b600082612b7557506001610849565b81612b8257506000610849565b8160018114612b985760028114612ba257612bbe565b6001915050610849565b60ff841115612bb357612bb36129dc565b50506001821b610849565b5060208310610133831016604e8410600b8410161715612be1575081810a610849565b612beb8383612b23565b8060001904821115612bff57612bff6129dc565b029392505050565b60006107a360ff841683612b66565b8082028115828204841417610849576108496129dc565b634e487b7160e01b600052601260045260246000fd5b600082612c6057634e487b7160e01b600052601260045260246000fd5b500490565b634e487b7160e01b600052602160045260246000fd5b600060208284031215612c8d57600080fd5b81516107a3816126e8565b85815284602082015260a060408201526000612cb760a08301866128f0565b6001600160a01b0394909416606083015250608001529392505050565b60008251612ce681846020870161258b565b919091019291505056fea2646970667358221220f129964a8493ce9f8be73d6ad214a9f6e8925cf8aaa13a67b845dd5b6f53c82464736f6c63430008130033","linkReferences":{}},"methodIdentifiers":{"actionsPerBlock(uint256)":"288fcba1","allowance(address,address)":"dd62ed3e","approve(address,uint256)":"095ea7b3","asset()":"38d52e0f","balanceOf(address)":"70a08231","convertToAssets(uint256)":"07a2d13a","convertToShares(uint256)":"c6e6f592","decimals()":"313ce567","decreaseAllowance(address,uint256)":"a457c2d7","deposit(uint256,address)":"6e553f65","depositAndOperate(uint256,address)":"5da9b72f","getAssets()":"67e4ac2c","getBalances()":"00113e08","getTokens()":"aa6ca808","getWeights()":"22acb867","holdTime()":"097d5155","increaseAllowance(address,uint256)":"39509351","lastBuyTimestamp(address)":"ef7898d0","maxActionsPerBlock()":"a7dc2cf5","maxDeposit(address)":"402d267d","maxMint(address)":"c63d75b6","maxRedeem(address)":"d905777e","maxWithdraw(address)":"ce96cb77","mint(uint256,address)":"94bf804d","name()":"06fdde03","operateBatch(bool[],address[],uint256[])":"2929ee82","owner()":"8da5cb5b","previewDeposit(uint256)":"ef8b30f7","previewMint(uint256)":"b3d7f6b9","previewRedeem(uint256)":"4cdad506","previewWithdraw(uint256)":"0a28a477","redeem(uint256,address,address)":"ba087652","renounceOwnership()":"715018a6","router()":"f887ea40","symbol()":"95d89b41","tokens(uint256)":"4f64b2be","totalAssets()":"01e1d114","totalSupply()":"18160ddd","transfer(address,uint256)":"a9059cbb","transferFrom(address,address,uint256)":"23b872dd","transferOwnership(address)":"f2fde38b","weights(uint256)":"b5f163ff","withdraw(uint256,address,address)":"b460af94"},"id":38}