{"abi":[{"type":"constructor","inputs":[{"name":"initialOwner","type":"address","internalType":"address"},{"name":"factory","type":"address","internalType":"address"},{"name":"asset_","type":"address","internalType":"address"},{"name":"symbol_","type":"string","internalType":"string"},{"name":"name_","type":"string","internalType":"string"},{"name":"holdTime_","type":"uint256","internalType":"uint256"},{"name":"maxActionsPerBlock_","type":"uint256","internalType":"uint256"},{"name":"router_","type":"address","internalType":"address"},{"name":"tokens_","type":"address[]","internalType":"address[]"},{"name":"weights_","type":"uint256[]","internalType":"uint256[]"}],"stateMutability":"nonpayable"},{"type":"function","name":"actionsPerBlock","inputs":[{"name":"","type":"uint256","internalType":"uint256"}],"outputs":[{"name":"","type":"uint256","internalType":"uint256"}],"stateMutability":"view"},{"type":"function","name":"allowance","inputs":[{"name":"owner","type":"address","internalType":"address"},{"name":"spender","type":"address","internalType":"address"}],"outputs":[{"name":"","type":"uint256","internalType":"uint256"}],"stateMutability":"view"},{"type":"function","name":"approve","inputs":[{"name":"spender","type":"address","internalType":"address"},{"name":"amount","type":"uint256","internalType":"uint256"}],"outputs":[{"name":"","type":"bool","internalType":"bool"}],"stateMutability":"nonpayable"},{"type":"function","name":"asset","inputs":[],"outputs":[{"name":"","type":"address","internalType":"address"}],"stateMutability":"view"},{"type":"function","name":"balanceOf","inputs":[{"name":"account","type":"address","internalType":"address"}],"outputs":[{"name":"","type":"uint256","internalType":"uint256"}],"stateMutability":"view"},{"type":"function","name":"convertToAssets","inputs":[{"name":"shares","type":"uint256","internalType":"uint256"}],"outputs":[{"name":"","type":"uint256","internalType":"uint256"}],"stateMutability":"view"},{"type":"function","name":"convertToShares","inputs":[{"name":"assets","type":"uint256","internalType":"uint256"}],"outputs":[{"name":"","type":"uint256","internalType":"uint256"}],"stateMutability":"view"},{"type":"function","name":"decimals","inputs":[],"outputs":[{"name":"","type":"uint8","internalType":"uint8"}],"stateMutability":"view"},{"type":"function","name":"decreaseAllowance","inputs":[{"name":"spender","type":"address","internalType":"address"},{"name":"subtractedValue","type":"uint256","internalType":"uint256"}],"outputs":[{"name":"","type":"bool","internalType":"bool"}],"stateMutability":"nonpayable"},{"type":"function","name":"deposit","inputs":[{"name":"assets","type":"uint256","internalType":"uint256"},{"name":"receiver","type":"address","internalType":"address"}],"outputs":[{"name":"","type":"uint256","internalType":"uint256"}],"stateMutability":"nonpayable"},{"type":"function","name":"depositAndOperate","inputs":[{"name":"assets","type":"uint256","internalType":"uint256"},{"name":"receiver","type":"address","internalType":"address"}],"outputs":[{"name":"","type":"uint256","internalType":"uint256"}],"stateMutability":"nonpayable"},{"type":"function","name":"getAssets","inputs":[],"outputs":[{"name":"","type":"uint256[]","internalType":"uint256[]"}],"stateMutability":"view"},{"type":"function","name":"getTokens","inputs":[],"outputs":[{"name":"","type":"address[]","internalType":"address[]"}],"stateMutability":"view"},{"type":"function","name":"getWeights","inputs":[],"outputs":[{"name":"","type":"uint256[]","internalType":"uint256[]"}],"stateMutability":"view"},{"type":"function","name":"holdTime","inputs":[],"outputs":[{"name":"","type":"uint256","internalType":"uint256"}],"stateMutability":"view"},{"type":"function","name":"increaseAllowance","inputs":[{"name":"spender","type":"address","internalType":"address"},{"name":"addedValue","type":"uint256","internalType":"uint256"}],"outputs":[{"name":"","type":"bool","internalType":"bool"}],"stateMutability":"nonpayable"},{"type":"function","name":"lastBuyTimestamp","inputs":[{"name":"","type":"address","internalType":"address"}],"outputs":[{"name":"","type":"uint256","internalType":"uint256"}],"stateMutability":"view"},{"type":"function","name":"maxActionsPerBlock","inputs":[],"outputs":[{"name":"","type":"uint256","internalType":"uint256"}],"stateMutability":"view"},{"type":"function","name":"maxDeposit","inputs":[{"name":"","type":"address","internalType":"address"}],"outputs":[{"name":"","type":"uint256","internalType":"uint256"}],"stateMutability":"view"},{"type":"function","name":"maxMint","inputs":[{"name":"","type":"address","internalType":"address"}],"outputs":[{"name":"","type":"uint256","internalType":"uint256"}],"stateMutability":"view"},{"type":"function","name":"maxRedeem","inputs":[{"name":"owner","type":"address","internalType":"address"}],"outputs":[{"name":"","type":"uint256","internalType":"uint256"}],"stateMutability":"view"},{"type":"function","name":"maxWithdraw","inputs":[{"name":"owner","type":"address","internalType":"address"}],"outputs":[{"name":"","type":"uint256","internalType":"uint256"}],"stateMutability":"view"},{"type":"function","name":"minLiquidity","inputs":[],"outputs":[{"name":"","type":"uint256","internalType":"uint256"}],"stateMutability":"view"},{"type":"function","name":"mint","inputs":[{"name":"shares","type":"uint256","internalType":"uint256"},{"name":"receiver","type":"address","internalType":"address"}],"outputs":[{"name":"","type":"uint256","internalType":"uint256"}],"stateMutability":"nonpayable"},{"type":"function","name":"name","inputs":[],"outputs":[{"name":"","type":"string","internalType":"string"}],"stateMutability":"view"},{"type":"function","name":"operateBatch","inputs":[{"name":"isBuy_","type":"bool[]","internalType":"bool[]"},{"name":"tokens_","type":"address[]","internalType":"address[]"},{"name":"assets_","type":"uint256[]","internalType":"uint256[]"}],"outputs":[],"stateMutability":"nonpayable"},{"type":"function","name":"owner","inputs":[],"outputs":[{"name":"","type":"address","internalType":"address"}],"stateMutability":"view"},{"type":"function","name":"previewDeposit","inputs":[{"name":"assets","type":"uint256","internalType":"uint256"}],"outputs":[{"name":"","type":"uint256","internalType":"uint256"}],"stateMutability":"view"},{"type":"function","name":"previewMint","inputs":[{"name":"shares","type":"uint256","internalType":"uint256"}],"outputs":[{"name":"","type":"uint256","internalType":"uint256"}],"stateMutability":"view"},{"type":"function","name":"previewRedeem","inputs":[{"name":"shares","type":"uint256","internalType":"uint256"}],"outputs":[{"name":"","type":"uint256","internalType":"uint256"}],"stateMutability":"view"},{"type":"function","name":"previewWithdraw","inputs":[{"name":"assets","type":"uint256","internalType":"uint256"}],"outputs":[{"name":"","type":"uint256","internalType":"uint256"}],"stateMutability":"view"},{"type":"function","name":"redeem","inputs":[{"name":"shares","type":"uint256","internalType":"uint256"},{"name":"receiver","type":"address","internalType":"address"},{"name":"owner","type":"address","internalType":"address"}],"outputs":[{"name":"","type":"uint256","internalType":"uint256"}],"stateMutability":"nonpayable"},{"type":"function","name":"renounceOwnership","inputs":[],"outputs":[],"stateMutability":"nonpayable"},{"type":"function","name":"router","inputs":[],"outputs":[{"name":"","type":"address","internalType":"contract IUniswapV2Router02"}],"stateMutability":"view"},{"type":"function","name":"symbol","inputs":[],"outputs":[{"name":"","type":"string","internalType":"string"}],"stateMutability":"view"},{"type":"function","name":"tokens","inputs":[{"name":"","type":"uint256","internalType":"uint256"}],"outputs":[{"name":"","type":"address","internalType":"address"}],"stateMutability":"view"},{"type":"function","name":"totalAssets","inputs":[],"outputs":[{"name":"","type":"uint256","internalType":"uint256"}],"stateMutability":"view"},{"type":"function","name":"totalSupply","inputs":[],"outputs":[{"name":"","type":"uint256","internalType":"uint256"}],"stateMutability":"view"},{"type":"function","name":"transfer","inputs":[{"name":"to","type":"address","internalType":"address"},{"name":"amount","type":"uint256","internalType":"uint256"}],"outputs":[{"name":"","type":"bool","internalType":"bool"}],"stateMutability":"nonpayable"},{"type":"function","name":"transferFrom","inputs":[{"name":"from","type":"address","internalType":"address"},{"name":"to","type":"address","internalType":"address"},{"name":"amount","type":"uint256","internalType":"uint256"}],"outputs":[{"name":"","type":"bool","internalType":"bool"}],"stateMutability":"nonpayable"},{"type":"function","name":"transferOwnership","inputs":[{"name":"newOwner","type":"address","internalType":"address"}],"outputs":[],"stateMutability":"nonpayable"},{"type":"function","name":"weights","inputs":[{"name":"","type":"uint256","internalType":"uint256"}],"outputs":[{"name":"","type":"uint256","internalType":"uint256"}],"stateMutability":"view"},{"type":"function","name":"withdraw","inputs":[{"name":"assets","type":"uint256","internalType":"uint256"},{"name":"receiver","type":"address","internalType":"address"},{"name":"owner","type":"address","internalType":"address"}],"outputs":[{"name":"","type":"uint256","internalType":"uint256"}],"stateMutability":"nonpayable"},{"type":"event","name":"Approval","inputs":[{"name":"owner","type":"address","indexed":true,"internalType":"address"},{"name":"spender","type":"address","indexed":true,"internalType":"address"},{"name":"value","type":"uint256","indexed":false,"internalType":"uint256"}],"anonymous":false},{"type":"event","name":"Buy","inputs":[{"name":"token","type":"address","indexed":true,"internalType":"address"},{"name":"sender","type":"address","indexed":true,"internalType":"address"},{"name":"amountBought","type":"uint256","indexed":false,"internalType":"uint256"},{"name":"amountSold","type":"uint256","indexed":false,"internalType":"uint256"}],"anonymous":false},{"type":"event","name":"Deposit","inputs":[{"name":"sender","type":"address","indexed":true,"internalType":"address"},{"name":"owner","type":"address","indexed":true,"internalType":"address"},{"name":"assets","type":"uint256","indexed":false,"internalType":"uint256"},{"name":"shares","type":"uint256","indexed":false,"internalType":"uint256"}],"anonymous":false},{"type":"event","name":"OwnershipTransferred","inputs":[{"name":"previousOwner","type":"address","indexed":true,"internalType":"address"},{"name":"newOwner","type":"address","indexed":true,"internalType":"address"}],"anonymous":false},{"type":"event","name":"Sell","inputs":[{"name":"token","type":"address","indexed":true,"internalType":"address"},{"name":"sender","type":"address","indexed":true,"internalType":"address"},{"name":"amountSold","type":"uint256","indexed":false,"internalType":"uint256"},{"name":"amountBought","type":"uint256","indexed":false,"internalType":"uint256"}],"anonymous":false},{"type":"event","name":"TokenStatus","inputs":[{"name":"token","type":"address","indexed":true,"internalType":"address"},{"name":"status","type":"bool","indexed":false,"internalType":"bool"}],"anonymous":false},{"type":"event","name":"Transfer","inputs":[{"name":"from","type":"address","indexed":true,"internalType":"address"},{"name":"to","type":"address","indexed":true,"internalType":"address"},{"name":"value","type":"uint256","indexed":false,"internalType":"uint256"}],"anonymous":false},{"type":"event","name":"Withdraw","inputs":[{"name":"sender","type":"address","indexed":true,"internalType":"address"},{"name":"receiver","type":"address","indexed":true,"internalType":"address"},{"name":"owner","type":"address","indexed":true,"internalType":"address"},{"name":"assets","type":"uint256","indexed":false,"internalType":"uint256"},{"name":"shares","type":"uint256","indexed":false,"internalType":"uint256"}],"anonymous":false}],"bytecode":{"object":"0x60c06040523480156200001157600080fd5b506040516200352a3803806200352a83398101604081905262000034916200060d565b8787878787848484620000473362000159565b6004620000558382620007b6565b506005620000648282620007b6565b5050506000806200007b83620001a960201b60201c565b91509150816200008d5760126200008f565b805b60ff1660a05250506001600160a01b031660805260069190915560075550620000bc91508b905062000159565b600b80546001600160a01b0319166001600160a01b038516179055620000e382826200028e565b604051630114345160e21b81526001600160a01b038a1690630450d1449062000115908b908690869060040162000882565b600060405180830381600087803b1580156200013057600080fd5b505af115801562000145573d6000803e3d6000fd5b5050505050505050505050505050620009b6565b600080546001600160a01b038381166001600160a01b0319831681178455604051919092169283917f8be0079c531659141344cd1fd0a4f28419497f9722a3daafe3b4186f6b6457e09190a35050565b60408051600481526024810182526020810180516001600160e01b031663313ce56760e01b17905290516000918291829182916001600160a01b03871691620001f2916200091a565b600060405180830381855afa9150503d80600081146200022f576040519150601f19603f3d011682016040523d82523d6000602084013e62000234565b606091505b50915091508180156200024957506020815110155b15620002815760008180602001905181019062000267919062000938565b905060ff81116200027f576001969095509350505050565b505b5060009485945092505050565b815181518114620002d65760405162461bcd60e51b815260206004820152600d60248201526c1b195b99dd1a1cc81a591a5bdd609a1b60448201526064015b60405180910390fd5b6000805b82811015620003af57600c858281518110620002fa57620002fa62000952565b60209081029190910181015182546001810184556000938452919092200180546001600160a01b0319166001600160a01b039092169190911790558351600d908590839081106200034f576200034f62000952565b60209081029190910181015182546001810184556000938452919092200155835184908290811062000385576200038562000952565b6020026020010151826200039a91906200097e565b9150620003a7816200099a565b9050620002da565b508061271014620004035760405162461bcd60e51b815260206004820152601560248201527f6e6f74206369656e746f20706572206369656e746f00000000000000000000006044820152606401620002cd565b50505050565b80516001600160a01b03811681146200042157600080fd5b919050565b634e487b7160e01b600052604160045260246000fd5b604051601f8201601f191681016001600160401b038111828210171562000467576200046762000426565b604052919050565b60005b838110156200048c57818101518382015260200162000472565b50506000910152565b600082601f830112620004a757600080fd5b81516001600160401b03811115620004c357620004c362000426565b620004d8601f8201601f19166020016200043c565b818152846020838601011115620004ee57600080fd5b620005018260208301602087016200046f565b949350505050565b60006001600160401b0382111562000525576200052562000426565b5060051b60200190565b600082601f8301126200054157600080fd5b815160206200055a620005548362000509565b6200043c565b82815260059290921b840181019181810190868411156200057a57600080fd5b8286015b84811015620005a057620005928162000409565b83529183019183016200057e565b509695505050505050565b600082601f830112620005bd57600080fd5b81516020620005d0620005548362000509565b82815260059290921b84018101918181019086841115620005f057600080fd5b8286015b84811015620005a05780518352918301918301620005f4565b6000806000806000806000806000806101408b8d0312156200062e57600080fd5b620006398b62000409565b99506200064960208c0162000409565b98506200065960408c0162000409565b60608c01519098506001600160401b03808211156200067757600080fd5b620006858e838f0162000495565b985060808d01519150808211156200069c57600080fd5b620006aa8e838f0162000495565b975060a08d0151965060c08d01519550620006c860e08e0162000409565b94506101008d0151915080821115620006e057600080fd5b620006ee8e838f016200052f565b93506101208d01519150808211156200070657600080fd5b50620007158d828e01620005ab565b9150509295989b9194979a5092959850565b600181811c908216806200073c57607f821691505b6020821081036200075d57634e487b7160e01b600052602260045260246000fd5b50919050565b601f821115620007b157600081815260208120601f850160051c810160208610156200078c5750805b601f850160051c820191505b81811015620007ad5782815560010162000798565b5050505b505050565b81516001600160401b03811115620007d257620007d262000426565b620007ea81620007e3845462000727565b8462000763565b602080601f831160018114620008225760008415620008095750858301515b600019600386901b1c1916600185901b178555620007ad565b600085815260208120601f198616915b82811015620008535788860151825594840194600190910190840162000832565b5085821015620008725787850151600019600388901b60f8161c191681555b5050505050600190811b01905550565b6001600160a01b038481168252606060208084018290528551918401829052600092868201929091906080860190855b81811015620008d2578551851683529483019491830191600101620008b2565b5050858103604087015286518082529082019350915080860160005b838110156200090c57815185529382019390820190600101620008ee565b509298975050505050505050565b600082516200092e8184602087016200046f565b9190910192915050565b6000602082840312156200094b57600080fd5b5051919050565b634e487b7160e01b600052603260045260246000fd5b634e487b7160e01b600052601160045260246000fd5b8082018082111562000994576200099462000968565b92915050565b600060018201620009af57620009af62000968565b5060010190565b60805160a051612b0f62000a1b60003960006108b401526000818161037a015281816105fa01528181610d88015281816113af01528181611499015281816115c90152818161164b0152818161185301528181611cfe0152611e5d0152612b0f6000f3fe608060405234801561001057600080fd5b50600436106102695760003560e01c806370a0823111610151578063b5f163ff116100c3578063d905777e11610087578063d905777e1461052e578063dd62ed3e14610541578063ef7898d014610554578063ef8b30f714610508578063f2fde38b14610574578063f887ea401461058757600080fd5b8063b5f163ff146104e2578063ba087652146104f5578063c63d75b6146103c5578063c6e6f59214610508578063ce96cb771461051b57600080fd5b8063a457c2d711610115578063a457c2d714610478578063a7dc2cf51461048b578063a9059cbb14610494578063aa6ca808146104a7578063b3d7f6b9146104bc578063b460af94146104cf57600080fd5b806370a082311461041b578063715018a6146104445780638da5cb5b1461044c57806394bf804d1461045d57806395d89b411461047057600080fd5b8063288fcba1116101ea578063402d267d116101ae578063402d267d146103c55780634cdad5061461029e5780634f64b2be146103da5780635da9b72f146103ed57806367e4ac2c146104005780636e553f651461040857600080fd5b8063288fcba1146103295780632929ee8214610349578063313ce5671461035e57806338d52e0f1461037857806339509351146103b257600080fd5b80630a28a477116102315780630a28a477146102dd57806318160ddd146102f057806322acb867146102f857806323b872dd1461030d578063252cf2d21461032057600080fd5b806301e1d1141461026e57806306fdde031461028957806307a2d13a1461029e578063095ea7b3146102b1578063097d5155146102d4575b600080fd5b61027661059a565b6040519081526020015b60405180910390f35b610291610694565b6040516102809190612354565b6102766102ac366004612387565b610726565b6102c46102bf3660046123bc565b610739565b6040519015158152602001610280565b61027660065481565b6102766102eb366004612387565b610751565b600354610276565b61030061075e565b60405161028091906123e6565b6102c461031b36600461242a565b6107b5565b61027660085481565b610276610337366004612387565b600a6020526000908152604090205481565b61035c6103573660046125ac565b6107d9565b005b6103666108ac565b60405160ff9091168152602001610280565b7f00000000000000000000000000000000000000000000000000000000000000005b6040516001600160a01b039091168152602001610280565b6102c46103c03660046123bc565b6108dd565b6102766103d3366004612692565b5060001990565b61039a6103e8366004612387565b6108ff565b6102766103fb3660046126ad565b610929565b610300610941565b6102766104163660046126ad565b6109e3565b610276610429366004612692565b6001600160a01b031660009081526001602052604090205490565b61035c6109fd565b6000546001600160a01b031661039a565b61027661046b3660046126ad565b610a11565b610291610a2b565b6102c46104863660046123bc565b610a3a565b61027660075481565b6102c46104a23660046123bc565b610ab5565b6104af610ac3565b604051610280919061271d565b6102766104ca366004612387565b610b24565b6102766104dd366004612730565b610b31565b6102766104f0366004612387565b610bad565b610276610503366004612730565b610bce565b610276610516366004612387565b610c42565b610276610529366004612692565b610c4f565b61027661053c366004612692565b610c73565b61027661054f36600461276c565b610c91565b610276610562366004612692565b60096020526000908152604090205481565b61035c610582366004612692565b610cbc565b600b5461039a906001600160a01b031681565b600c5460009081805b828110156105f7576105db600c82815481106105c1576105c1612796565b6000918252602090912001546001600160a01b0316610d35565b6105e590836127c2565b91506105f0816127d5565b90506105a3565b507f00000000000000000000000000000000000000000000000000000000000000006040516370a0823160e01b81523060048201526001600160a01b0391909116906370a0823190602401602060405180830381865afa15801561065f573d6000803e3d6000fd5b505050506040513d601f19601f8201168201806040525081019061068391906127ee565b61068d90826127c2565b9392505050565b6060600480546106a390612807565b80601f01602080910402602001604051908101604052809291908181526020018280546106cf90612807565b801561071c5780601f106106f15761010080835404028352916020019161071c565b820191906000526020600020905b8154815290600101906020018083116106ff57829003601f168201915b5050505050905090565b6000610733826000610ef2565b92915050565b600033610747818585610f2c565b5060019392505050565b6000610733826001611050565b6060600d80548060200260200160405190810160405280929190818152602001828054801561071c57602002820191906000526020600020905b815481526020019060010190808311610798575050505050905090565b6000336107c3858285611080565b6107ce8585856110fa565b506001949350505050565b6107e16112a5565b82518251811480156107f35750815181145b6108345760405162461bcd60e51b815260206004820152600d60248201526c1b195b99dd1a1cc81a591a5bdd609a1b60448201526064015b60405180910390fd5b60005b818110156108a55761089585828151811061085457610854612796565b602002602001015185838151811061086e5761086e612796565b602002602001015185848151811061088857610888612796565b60200260200101516112ff565b61089e816127d5565b9050610837565b5050505050565b60006108d8817f0000000000000000000000000000000000000000000000000000000000000000612841565b905090565b6000336107478185856108f08383610c91565b6108fa91906127c2565b610f2c565b600c818154811061090f57600080fd5b6000918252602090912001546001600160a01b0316905081565b60008061093684846109e3565b905061068d8461131e565b600c5460609060008167ffffffffffffffff81111561096257610962612466565b60405190808252806020026020018201604052801561098b578160200160208202803683370190505b50905060005b828110156109dc576109af600c82815481106105c1576105c1612796565b8282815181106109c1576109c1612796565b60209081029190910101526109d5816127d5565b9050610991565b5092915050565b6000806109ef84610c42565b905061068d338486846113aa565b610a056112a5565b610a0f600061143c565b565b600080610a1d84610b24565b905061068d338483876113aa565b6060600580546106a390612807565b60003381610a488286610c91565b905083811015610aa85760405162461bcd60e51b815260206004820152602560248201527f45524332303a2064656372656173656420616c6c6f77616e63652062656c6f77604482015264207a65726f60d81b606482015260840161082b565b6107ce8286868403610f2c565b6000336107478185856110fa565b6060600c80548060200260200160405190810160405280929190818152602001828054801561071c57602002820191906000526020600020905b81546001600160a01b03168152600190910190602001808311610afd575050505050905090565b6000610733826001610ef2565b6000610b3c82610c4f565b841115610b8b5760405162461bcd60e51b815260206004820152601f60248201527f455243343632363a207769746864726177206d6f7265207468616e206d617800604482015260640161082b565b6000610b9685610751565b9050610ba5338585888561148c565b949350505050565b600d8181548110610bbd57600080fd5b600091825260209091200154905081565b6000610bd982610c73565b841115610c285760405162461bcd60e51b815260206004820152601d60248201527f455243343632363a2072656465656d206d6f7265207468616e206d6178000000604482015260640161082b565b6000610c3385610726565b9050610ba5338585848961148c565b6000610733826000611050565b6001600160a01b038116600090815260016020526040812054610733906000610ef2565b6001600160a01b038116600090815260016020526040812054610733565b6001600160a01b03918216600090815260026020908152604080832093909416825291909152205490565b610cc46112a5565b6001600160a01b038116610d295760405162461bcd60e51b815260206004820152602660248201527f4f776e61626c653a206e6577206f776e657220697320746865207a65726f206160448201526564647265737360d01b606482015260840161082b565b610d328161143c565b50565b604080516002808252606082018352600092839291906020830190803683370190505090508281600081518110610d6e57610d6e612796565b6001600160a01b03909216602092830291909101909101527f000000000000000000000000000000000000000000000000000000000000000081600181518110610dba57610dba612796565b6001600160a01b0392831660209182029290920101526040516370a0823160e01b81523060048201526000918516906370a0823190602401602060405180830381865afa158015610e0f573d6000803e3d6000fd5b505050506040513d601f19601f82011682018060405250810190610e3391906127ee565b905080600003610e47575060009392505050565b600b5460405163d06ca61f60e01b81526000916001600160a01b03169063d06ca61f90610e7a908590879060040161285a565b600060405180830381865afa158015610e97573d6000803e3d6000fd5b505050506040513d6000823e601f3d908101601f19168201604052610ebf9190810190612873565b90508060018251610ed091906128f9565b81518110610ee057610ee0612796565b60200260200101519350505050919050565b600061068d610eff61059a565b610f0a9060016127c2565b610f166000600a6129f0565b600354610f2391906127c2565b85919085611545565b6001600160a01b038316610f8e5760405162461bcd60e51b8152602060048201526024808201527f45524332303a20617070726f76652066726f6d20746865207a65726f206164646044820152637265737360e01b606482015260840161082b565b6001600160a01b038216610fef5760405162461bcd60e51b815260206004820152602260248201527f45524332303a20617070726f766520746f20746865207a65726f206164647265604482015261737360f01b606482015260840161082b565b6001600160a01b0383811660008181526002602090815260408083209487168084529482529182902085905590518481527f8c5be1e5ebec7d5bd14f71427d1e84f3dd0314c0f7b2291e5b200ac8c7c3b925910160405180910390a3505050565b600061068d61106082600a6129f0565b60035461106d91906127c2565b61107561059a565b610f239060016127c2565b600061108c8484610c91565b905060001981146110f457818110156110e75760405162461bcd60e51b815260206004820152601d60248201527f45524332303a20696e73756666696369656e7420616c6c6f77616e6365000000604482015260640161082b565b6110f48484848403610f2c565b50505050565b6001600160a01b03831661115e5760405162461bcd60e51b815260206004820152602560248201527f45524332303a207472616e736665722066726f6d20746865207a65726f206164604482015264647265737360d81b606482015260840161082b565b6001600160a01b0382166111c05760405162461bcd60e51b815260206004820152602360248201527f45524332303a207472616e7366657220746f20746865207a65726f206164647260448201526265737360e81b606482015260840161082b565b6001600160a01b038316600090815260016020526040902054818110156112385760405162461bcd60e51b815260206004820152602660248201527f45524332303a207472616e7366657220616d6f756e7420657863656564732062604482015265616c616e636560d01b606482015260840161082b565b6001600160a01b0380851660008181526001602052604080822086860390559286168082529083902080548601905591517fddf252ad1be2c89b69c2b068fc378daa952ba7f163c4a11628f55a4df523b3ef906112989086815260200190565b60405180910390a36110f4565b6000546001600160a01b03163314610a0f5760405162461bcd60e51b815260206004820181905260248201527f4f776e61626c653a2063616c6c6572206973206e6f7420746865206f776e6572604482015260640161082b565b821561130f576110f482826115a2565b6110f48282611800565b505050565b600c5460005b81811015611319576000612710600d838154811061134457611344612796565b90600052602060002001548561135a91906129ff565b6113649190612a2c565b9050611397600c838154811061137c5761137c612796565b6000918252602090912001546001600160a01b0316826115a2565b5050806113a3906127d5565b9050611324565b6113d67f0000000000000000000000000000000000000000000000000000000000000000853085611bcd565b6113e08382611c38565b826001600160a01b0316846001600160a01b03167fdcbc1c05240f31ff3ad067ef1ee35ce4997762752e3a095284754544f4c709d7848460405161142e929190918252602082015260400190565b60405180910390a350505050565b600080546001600160a01b038381166001600160a01b0319831681178455604051919092169283917f8be0079c531659141344cd1fd0a4f28419497f9722a3daafe3b4186f6b6457e09190a35050565b61149582611cfa565b60007f00000000000000000000000000000000000000000000000000000000000000006040516370a0823160e01b81523060048201526001600160a01b0391909116906370a0823190602401602060405180830381865afa1580156114fe573d6000803e3d6000fd5b505050506040513d601f19601f8201168201806040525081019061152291906127ee565b905080831115611530578092505b61153d8686868686611e2a565b505050505050565b600080611553868686611eea565b9050600183600281111561156957611569612a4e565b14801561158657506000848061158157611581612a16565b868809115b15611599576115966001826127c2565b90505b95945050505050565b604080516002808252606080830184529260009291906020830190803683370190505090507f0000000000000000000000000000000000000000000000000000000000000000816000815181106115fb576115fb612796565b60200260200101906001600160a01b031690816001600160a01b031681525050838160018151811061162f5761162f612796565b6001600160a01b039092166020928302919091019091015260007f0000000000000000000000000000000000000000000000000000000000000000600b5460405163095ea7b360e01b81526001600160a01b0391821660048201526024810187905291169063095ea7b3906044016020604051808303816000875af11580156116bc573d6000803e3d6000fd5b505050506040513d601f19601f820116820180604052508101906116e09190612a64565b50600b546040516338ed173960e01b81526001600160a01b03909116906338ed1739906117199087908590879030904290600401612a81565b6000604051808303816000875af1158015611738573d6000803e3d6000fd5b505050506040513d6000823e601f3d908101601f191682016040526117609190810190612873565b9250336001600160a01b0316856001600160a01b03167f89f5adc174562e07c9c9b1cae7109bbecb21cf9d1b2847e550042b8653c54a0e85600187516117a691906128f9565b815181106117b6576117b6612796565b6020026020010151866000815181106117d1576117d1612796565b60200260200101516040516117f0929190918252602082015260400190565b60405180910390a3505092915050565b60408051600280825260608083018452926000929190602083019080368337019050509050838160008151811061183957611839612796565b6001600160a01b03909216602092830291909101909101527f00000000000000000000000000000000000000000000000000000000000000008160018151811061188557611885612796565b6001600160a01b0392831660209182029290920101526040516370a0823160e01b81523060048201526000918616906370a0823190602401602060405180830381865afa1580156118da573d6000803e3d6000fd5b505050506040513d601f19601f820116820180604052508101906118fe91906127ee565b600b5460405163095ea7b360e01b81526001600160a01b0391821660048201526024810183905291925086169063095ea7b3906044016020604051808303816000875af1158015611953573d6000803e3d6000fd5b505050506040513d601f19601f820116820180604052508101906119779190612a64565b50600b5460405163d06ca61f60e01b81526000916001600160a01b03169063d06ca61f906119ab908590879060040161285a565b600060405180830381865afa1580156119c8573d6000803e3d6000fd5b505050506040513d6000823e601f3d908101601f191682016040526119f09190810190612873565b905060008160018351611a0391906128f9565b81518110611a1357611a13612796565b6020026020010151905085811015611aab57600b54604051634401edf760e11b81526001600160a01b0390911690638803dbee90611a5d9084908790899030904290600401612a81565b6000604051808303816000875af1158015611a7c573d6000803e3d6000fd5b505050506040513d6000823e601f3d908101601f19168201604052611aa49190810190612873565b9450611b2d565b600b54604051634401edf760e11b81526001600160a01b0390911690638803dbee90611ae39089908790899030904290600401612a81565b6000604051808303816000875af1158015611b02573d6000803e3d6000fd5b505050506040513d6000823e601f3d908101601f19168201604052611b2a9190810190612873565b94505b336001600160a01b0316876001600160a01b03167fa082022e93cfcd9f1da5f9236718053910f7e840da080c789c7845698dc032ff87600081518110611b7557611b75612796565b60200260200101518860018a51611b8c91906128f9565b81518110611b9c57611b9c612796565b6020026020010151604051611bbb929190918252602082015260400190565b60405180910390a35050505092915050565b6040516001600160a01b03808516602483015283166044820152606481018290526110f49085906323b872dd60e01b906084015b60408051601f198184030181529190526020810180516001600160e01b03166001600160e01b031990931692909217909152611fd4565b6001600160a01b038216611c8e5760405162461bcd60e51b815260206004820152601f60248201527f45524332303a206d696e7420746f20746865207a65726f206164647265737300604482015260640161082b565b8060036000828254611ca091906127c2565b90915550506001600160a01b0382166000818152600160209081526040808320805486019055518481527fddf252ad1be2c89b69c2b068fc378daa952ba7f163c4a11628f55a4df523b3ef910160405180910390a35b5050565b60007f00000000000000000000000000000000000000000000000000000000000000006040516370a0823160e01b81523060048201526001600160a01b0391909116906370a0823190602401602060405180830381865afa158015611d63573d6000803e3d6000fd5b505050506040513d601f19601f82011682018060405250810190611d8791906127ee565b905081811015611cf657611d9b81836128f9565b600c5490925060005b818110156110f4576000612710600d8381548110611dc457611dc4612796565b906000526020600020015486611dda91906129ff565b611de49190612a2c565b9050611e17600c8381548110611dfc57611dfc612796565b6000918252602090912001546001600160a01b031682611800565b505080611e23906127d5565b9050611da4565b826001600160a01b0316856001600160a01b031614611e4e57611e4e838683611080565b611e5883826120a9565b611e837f000000000000000000000000000000000000000000000000000000000000000085846121dd565b826001600160a01b0316846001600160a01b0316866001600160a01b03167ffbde797d201c681b91056529119e0b02407c7bb96a4a2c75c01fc9667232c8db8585604051611edb929190918252602082015260400190565b60405180910390a45050505050565b6000808060001985870985870292508281108382030391505080600003611f2457838281611f1a57611f1a612a16565b049250505061068d565b808411611f6b5760405162461bcd60e51b81526020600482015260156024820152744d6174683a206d756c446976206f766572666c6f7760581b604482015260640161082b565b60008486880960026001871981018816978890046003810283188082028403028082028403028082028403028082028403028082028403029081029092039091026000889003889004909101858311909403939093029303949094049190911702949350505050565b6000612029826040518060400160405280602081526020017f5361666545524332303a206c6f772d6c6576656c2063616c6c206661696c6564815250856001600160a01b031661220d9092919063ffffffff16565b905080516000148061204a57508080602001905181019061204a9190612a64565b6113195760405162461bcd60e51b815260206004820152602a60248201527f5361666545524332303a204552433230206f7065726174696f6e20646964206e6044820152691bdd081cdd58d8d9595960b21b606482015260840161082b565b6001600160a01b0382166121095760405162461bcd60e51b815260206004820152602160248201527f45524332303a206275726e2066726f6d20746865207a65726f206164647265736044820152607360f81b606482015260840161082b565b6001600160a01b0382166000908152600160205260409020548181101561217d5760405162461bcd60e51b815260206004820152602260248201527f45524332303a206275726e20616d6f756e7420657863656564732062616c616e604482015261636560f01b606482015260840161082b565b6001600160a01b03831660008181526001602090815260408083208686039055600380548790039055518581529192917fddf252ad1be2c89b69c2b068fc378daa952ba7f163c4a11628f55a4df523b3ef910160405180910390a3505050565b6040516001600160a01b03831660248201526044810182905261131990849063a9059cbb60e01b90606401611c01565b6060610ba5848460008585600080866001600160a01b031685876040516122349190612abd565b60006040518083038185875af1925050503d8060008114612271576040519150601f19603f3d011682016040523d82523d6000602084013e612276565b606091505b509150915061228787838387612292565b979650505050505050565b606083156123015782516000036122fa576001600160a01b0385163b6122fa5760405162461bcd60e51b815260206004820152601d60248201527f416464726573733a2063616c6c20746f206e6f6e2d636f6e7472616374000000604482015260640161082b565b5081610ba5565b610ba583838151156123165781518083602001fd5b8060405162461bcd60e51b815260040161082b9190612354565b60005b8381101561234b578181015183820152602001612333565b50506000910152565b6020815260008251806020840152612373816040850160208701612330565b601f01601f19169190910160400192915050565b60006020828403121561239957600080fd5b5035919050565b80356001600160a01b03811681146123b757600080fd5b919050565b600080604083850312156123cf57600080fd5b6123d8836123a0565b946020939093013593505050565b6020808252825182820181905260009190848201906040850190845b8181101561241e57835183529284019291840191600101612402565b50909695505050505050565b60008060006060848603121561243f57600080fd5b612448846123a0565b9250612456602085016123a0565b9150604084013590509250925092565b634e487b7160e01b600052604160045260246000fd5b604051601f8201601f1916810167ffffffffffffffff811182821017156124a5576124a5612466565b604052919050565b600067ffffffffffffffff8211156124c7576124c7612466565b5060051b60200190565b8015158114610d3257600080fd5b600082601f8301126124f057600080fd5b81356020612505612500836124ad565b61247c565b82815260059290921b8401810191818101908684111561252457600080fd5b8286015b8481101561254657612539816123a0565b8352918301918301612528565b509695505050505050565b600082601f83011261256257600080fd5b81356020612572612500836124ad565b82815260059290921b8401810191818101908684111561259157600080fd5b8286015b848110156125465780358352918301918301612595565b6000806000606084860312156125c157600080fd5b833567ffffffffffffffff808211156125d957600080fd5b818601915086601f8301126125ed57600080fd5b813560206125fd612500836124ad565b82815260059290921b8401810191818101908a84111561261c57600080fd5b948201945b83861015612643578535612634816124d1565b82529482019490820190612621565b9750508701359250508082111561265957600080fd5b612665878388016124df565b9350604086013591508082111561267b57600080fd5b5061268886828701612551565b9150509250925092565b6000602082840312156126a457600080fd5b61068d826123a0565b600080604083850312156126c057600080fd5b823591506126d0602084016123a0565b90509250929050565b600081518084526020808501945080840160005b838110156127125781516001600160a01b0316875295820195908201906001016126ed565b509495945050505050565b60208152600061068d60208301846126d9565b60008060006060848603121561274557600080fd5b83359250612755602085016123a0565b9150612763604085016123a0565b90509250925092565b6000806040838503121561277f57600080fd5b612788836123a0565b91506126d0602084016123a0565b634e487b7160e01b600052603260045260246000fd5b634e487b7160e01b600052601160045260246000fd5b80820180821115610733576107336127ac565b6000600182016127e7576127e76127ac565b5060010190565b60006020828403121561280057600080fd5b5051919050565b600181811c9082168061281b57607f821691505b60208210810361283b57634e487b7160e01b600052602260045260246000fd5b50919050565b60ff8181168382160190811115610733576107336127ac565b828152604060208201526000610ba560408301846126d9565b6000602080838503121561288657600080fd5b825167ffffffffffffffff81111561289d57600080fd5b8301601f810185136128ae57600080fd5b80516128bc612500826124ad565b81815260059190911b820183019083810190878311156128db57600080fd5b928401925b82841015612287578351825292840192908401906128e0565b81810381811115610733576107336127ac565b600181815b8085111561294757816000190482111561292d5761292d6127ac565b8085161561293a57918102915b93841c9390800290612911565b509250929050565b60008261295e57506001610733565b8161296b57506000610733565b8160018114612981576002811461298b576129a7565b6001915050610733565b60ff84111561299c5761299c6127ac565b50506001821b610733565b5060208310610133831016604e8410600b84101617156129ca575081810a610733565b6129d4838361290c565b80600019048211156129e8576129e86127ac565b029392505050565b600061068d60ff84168361294f565b8082028115828204841417610733576107336127ac565b634e487b7160e01b600052601260045260246000fd5b600082612a4957634e487b7160e01b600052601260045260246000fd5b500490565b634e487b7160e01b600052602160045260246000fd5b600060208284031215612a7657600080fd5b815161068d816124d1565b85815284602082015260a060408201526000612aa060a08301866126d9565b6001600160a01b0394909416606083015250608001529392505050565b60008251612acf818460208701612330565b919091019291505056fea2646970667358221220b395fbc9935c42a75ab012c9b0dfd305ddf9fcbd5f424939c40cb8bbd1e8520464736f6c63430008130033","linkReferences":{}},"methodIdentifiers":{"actionsPerBlock(uint256)":"288fcba1","allowance(address,address)":"dd62ed3e","approve(address,uint256)":"095ea7b3","asset()":"38d52e0f","balanceOf(address)":"70a08231","convertToAssets(uint256)":"07a2d13a","convertToShares(uint256)":"c6e6f592","decimals()":"313ce567","decreaseAllowance(address,uint256)":"a457c2d7","deposit(uint256,address)":"6e553f65","depositAndOperate(uint256,address)":"5da9b72f","getAssets()":"67e4ac2c","getTokens()":"aa6ca808","getWeights()":"22acb867","holdTime()":"097d5155","increaseAllowance(address,uint256)":"39509351","lastBuyTimestamp(address)":"ef7898d0","maxActionsPerBlock()":"a7dc2cf5","maxDeposit(address)":"402d267d","maxMint(address)":"c63d75b6","maxRedeem(address)":"d905777e","maxWithdraw(address)":"ce96cb77","minLiquidity()":"252cf2d2","mint(uint256,address)":"94bf804d","name()":"06fdde03","operateBatch(bool[],address[],uint256[])":"2929ee82","owner()":"8da5cb5b","previewDeposit(uint256)":"ef8b30f7","previewMint(uint256)":"b3d7f6b9","previewRedeem(uint256)":"4cdad506","previewWithdraw(uint256)":"0a28a477","redeem(uint256,address,address)":"ba087652","renounceOwnership()":"715018a6","router()":"f887ea40","symbol()":"95d89b41","tokens(uint256)":"4f64b2be","totalAssets()":"01e1d114","totalSupply()":"18160ddd","transfer(address,uint256)":"a9059cbb","transferFrom(address,address,uint256)":"23b872dd","transferOwnership(address)":"f2fde38b","weights(uint256)":"b5f163ff","withdraw(uint256,address,address)":"b460af94"},"id":38}