{"abi":[{"type":"constructor","inputs":[{"name":"initialOwner","type":"address","internalType":"address"},{"name":"asset_","type":"address","internalType":"address"},{"name":"symbol_","type":"string","internalType":"string"},{"name":"name_","type":"string","internalType":"string"},{"name":"holdTime_","type":"uint256","internalType":"uint256"},{"name":"maxActionsPerBlock_","type":"uint256","internalType":"uint256"},{"name":"router_","type":"address","internalType":"address"},{"name":"tokens_","type":"address[]","internalType":"address[]"},{"name":"weights_","type":"uint256[]","internalType":"uint256[]"}],"stateMutability":"nonpayable"},{"type":"function","name":"actionsPerBlock","inputs":[{"name":"","type":"uint256","internalType":"uint256"}],"outputs":[{"name":"","type":"uint256","internalType":"uint256"}],"stateMutability":"view"},{"type":"function","name":"allowance","inputs":[{"name":"owner","type":"address","internalType":"address"},{"name":"spender","type":"address","internalType":"address"}],"outputs":[{"name":"","type":"uint256","internalType":"uint256"}],"stateMutability":"view"},{"type":"function","name":"approve","inputs":[{"name":"spender","type":"address","internalType":"address"},{"name":"amount","type":"uint256","internalType":"uint256"}],"outputs":[{"name":"","type":"bool","internalType":"bool"}],"stateMutability":"nonpayable"},{"type":"function","name":"asset","inputs":[],"outputs":[{"name":"","type":"address","internalType":"address"}],"stateMutability":"view"},{"type":"function","name":"balanceOf","inputs":[{"name":"account","type":"address","internalType":"address"}],"outputs":[{"name":"","type":"uint256","internalType":"uint256"}],"stateMutability":"view"},{"type":"function","name":"convertToAssets","inputs":[{"name":"shares","type":"uint256","internalType":"uint256"}],"outputs":[{"name":"","type":"uint256","internalType":"uint256"}],"stateMutability":"view"},{"type":"function","name":"convertToShares","inputs":[{"name":"assets","type":"uint256","internalType":"uint256"}],"outputs":[{"name":"","type":"uint256","internalType":"uint256"}],"stateMutability":"view"},{"type":"function","name":"decimals","inputs":[],"outputs":[{"name":"","type":"uint8","internalType":"uint8"}],"stateMutability":"view"},{"type":"function","name":"decreaseAllowance","inputs":[{"name":"spender","type":"address","internalType":"address"},{"name":"subtractedValue","type":"uint256","internalType":"uint256"}],"outputs":[{"name":"","type":"bool","internalType":"bool"}],"stateMutability":"nonpayable"},{"type":"function","name":"deposit","inputs":[{"name":"assets","type":"uint256","internalType":"uint256"},{"name":"receiver","type":"address","internalType":"address"}],"outputs":[{"name":"","type":"uint256","internalType":"uint256"}],"stateMutability":"nonpayable"},{"type":"function","name":"depositAndOperate","inputs":[{"name":"assets","type":"uint256","internalType":"uint256"},{"name":"receiver","type":"address","internalType":"address"}],"outputs":[{"name":"","type":"uint256","internalType":"uint256"}],"stateMutability":"nonpayable"},{"type":"function","name":"getAssets","inputs":[],"outputs":[{"name":"","type":"uint256[]","internalType":"uint256[]"}],"stateMutability":"view"},{"type":"function","name":"holdTime","inputs":[],"outputs":[{"name":"","type":"uint256","internalType":"uint256"}],"stateMutability":"view"},{"type":"function","name":"increaseAllowance","inputs":[{"name":"spender","type":"address","internalType":"address"},{"name":"addedValue","type":"uint256","internalType":"uint256"}],"outputs":[{"name":"","type":"bool","internalType":"bool"}],"stateMutability":"nonpayable"},{"type":"function","name":"lastBuyTimestamp","inputs":[{"name":"","type":"address","internalType":"address"}],"outputs":[{"name":"","type":"uint256","internalType":"uint256"}],"stateMutability":"view"},{"type":"function","name":"maxActionsPerBlock","inputs":[],"outputs":[{"name":"","type":"uint256","internalType":"uint256"}],"stateMutability":"view"},{"type":"function","name":"maxDeposit","inputs":[{"name":"","type":"address","internalType":"address"}],"outputs":[{"name":"","type":"uint256","internalType":"uint256"}],"stateMutability":"view"},{"type":"function","name":"maxMint","inputs":[{"name":"","type":"address","internalType":"address"}],"outputs":[{"name":"","type":"uint256","internalType":"uint256"}],"stateMutability":"view"},{"type":"function","name":"maxRedeem","inputs":[{"name":"owner","type":"address","internalType":"address"}],"outputs":[{"name":"","type":"uint256","internalType":"uint256"}],"stateMutability":"view"},{"type":"function","name":"maxWithdraw","inputs":[{"name":"owner","type":"address","internalType":"address"}],"outputs":[{"name":"","type":"uint256","internalType":"uint256"}],"stateMutability":"view"},{"type":"function","name":"minLiquidity","inputs":[],"outputs":[{"name":"","type":"uint256","internalType":"uint256"}],"stateMutability":"view"},{"type":"function","name":"mint","inputs":[{"name":"shares","type":"uint256","internalType":"uint256"},{"name":"receiver","type":"address","internalType":"address"}],"outputs":[{"name":"","type":"uint256","internalType":"uint256"}],"stateMutability":"nonpayable"},{"type":"function","name":"name","inputs":[],"outputs":[{"name":"","type":"string","internalType":"string"}],"stateMutability":"view"},{"type":"function","name":"operateBatch","inputs":[{"name":"isBuy_","type":"bool[]","internalType":"bool[]"},{"name":"tokens_","type":"address[]","internalType":"address[]"},{"name":"assets_","type":"uint256[]","internalType":"uint256[]"}],"outputs":[],"stateMutability":"nonpayable"},{"type":"function","name":"owner","inputs":[],"outputs":[{"name":"","type":"address","internalType":"address"}],"stateMutability":"view"},{"type":"function","name":"previewDeposit","inputs":[{"name":"assets","type":"uint256","internalType":"uint256"}],"outputs":[{"name":"","type":"uint256","internalType":"uint256"}],"stateMutability":"view"},{"type":"function","name":"previewMint","inputs":[{"name":"shares","type":"uint256","internalType":"uint256"}],"outputs":[{"name":"","type":"uint256","internalType":"uint256"}],"stateMutability":"view"},{"type":"function","name":"previewRedeem","inputs":[{"name":"shares","type":"uint256","internalType":"uint256"}],"outputs":[{"name":"","type":"uint256","internalType":"uint256"}],"stateMutability":"view"},{"type":"function","name":"previewWithdraw","inputs":[{"name":"assets","type":"uint256","internalType":"uint256"}],"outputs":[{"name":"","type":"uint256","internalType":"uint256"}],"stateMutability":"view"},{"type":"function","name":"redeem","inputs":[{"name":"shares","type":"uint256","internalType":"uint256"},{"name":"receiver","type":"address","internalType":"address"},{"name":"owner","type":"address","internalType":"address"}],"outputs":[{"name":"","type":"uint256","internalType":"uint256"}],"stateMutability":"nonpayable"},{"type":"function","name":"renounceOwnership","inputs":[],"outputs":[],"stateMutability":"nonpayable"},{"type":"function","name":"router","inputs":[],"outputs":[{"name":"","type":"address","internalType":"contract IUniswapV2Router02"}],"stateMutability":"view"},{"type":"function","name":"symbol","inputs":[],"outputs":[{"name":"","type":"string","internalType":"string"}],"stateMutability":"view"},{"type":"function","name":"tokens","inputs":[{"name":"","type":"uint256","internalType":"uint256"}],"outputs":[{"name":"","type":"address","internalType":"address"}],"stateMutability":"view"},{"type":"function","name":"totalAssets","inputs":[],"outputs":[{"name":"","type":"uint256","internalType":"uint256"}],"stateMutability":"view"},{"type":"function","name":"totalSupply","inputs":[],"outputs":[{"name":"","type":"uint256","internalType":"uint256"}],"stateMutability":"view"},{"type":"function","name":"transfer","inputs":[{"name":"to","type":"address","internalType":"address"},{"name":"amount","type":"uint256","internalType":"uint256"}],"outputs":[{"name":"","type":"bool","internalType":"bool"}],"stateMutability":"nonpayable"},{"type":"function","name":"transferFrom","inputs":[{"name":"from","type":"address","internalType":"address"},{"name":"to","type":"address","internalType":"address"},{"name":"amount","type":"uint256","internalType":"uint256"}],"outputs":[{"name":"","type":"bool","internalType":"bool"}],"stateMutability":"nonpayable"},{"type":"function","name":"transferOwnership","inputs":[{"name":"newOwner","type":"address","internalType":"address"}],"outputs":[],"stateMutability":"nonpayable"},{"type":"function","name":"weights","inputs":[{"name":"","type":"uint256","internalType":"uint256"}],"outputs":[{"name":"","type":"uint256","internalType":"uint256"}],"stateMutability":"view"},{"type":"function","name":"withdraw","inputs":[{"name":"assets","type":"uint256","internalType":"uint256"},{"name":"receiver","type":"address","internalType":"address"},{"name":"owner","type":"address","internalType":"address"}],"outputs":[{"name":"","type":"uint256","internalType":"uint256"}],"stateMutability":"nonpayable"},{"type":"event","name":"Approval","inputs":[{"name":"owner","type":"address","indexed":true,"internalType":"address"},{"name":"spender","type":"address","indexed":true,"internalType":"address"},{"name":"value","type":"uint256","indexed":false,"internalType":"uint256"}],"anonymous":false},{"type":"event","name":"Deposit","inputs":[{"name":"sender","type":"address","indexed":true,"internalType":"address"},{"name":"owner","type":"address","indexed":true,"internalType":"address"},{"name":"assets","type":"uint256","indexed":false,"internalType":"uint256"},{"name":"shares","type":"uint256","indexed":false,"internalType":"uint256"}],"anonymous":false},{"type":"event","name":"OwnershipTransferred","inputs":[{"name":"previousOwner","type":"address","indexed":true,"internalType":"address"},{"name":"newOwner","type":"address","indexed":true,"internalType":"address"}],"anonymous":false},{"type":"event","name":"TokenStatus","inputs":[{"name":"token","type":"address","indexed":true,"internalType":"address"},{"name":"status","type":"bool","indexed":false,"internalType":"bool"}],"anonymous":false},{"type":"event","name":"Transfer","inputs":[{"name":"from","type":"address","indexed":true,"internalType":"address"},{"name":"to","type":"address","indexed":true,"internalType":"address"},{"name":"value","type":"uint256","indexed":false,"internalType":"uint256"}],"anonymous":false},{"type":"event","name":"Withdraw","inputs":[{"name":"sender","type":"address","indexed":true,"internalType":"address"},{"name":"receiver","type":"address","indexed":true,"internalType":"address"},{"name":"owner","type":"address","indexed":true,"internalType":"address"},{"name":"assets","type":"uint256","indexed":false,"internalType":"uint256"},{"name":"shares","type":"uint256","indexed":false,"internalType":"uint256"}],"anonymous":false}],"bytecode":{"object":"0x60c06040523480156200001157600080fd5b5060405162003193380380620031938339810160408190526200003491620005a6565b87878787878484846200004733620000f2565b60046200005583826200073b565b5060056200006482826200073b565b5050506000806200007b836200014260201b60201c565b91509150816200008d5760126200008f565b805b60ff1660a05250506001600160a01b031660805260069190915560075550620000bc91508a9050620000f2565b600b80546001600160a01b0319166001600160a01b038516179055620000e3828262000227565b505050505050505050620008a3565b600080546001600160a01b038381166001600160a01b0319831681178455604051919092169283917f8be0079c531659141344cd1fd0a4f28419497f9722a3daafe3b4186f6b6457e09190a35050565b60408051600481526024810182526020810180516001600160e01b031663313ce56760e01b17905290516000918291829182916001600160a01b038716916200018b9162000807565b600060405180830381855afa9150503d8060008114620001c8576040519150601f19603f3d011682016040523d82523d6000602084013e620001cd565b606091505b5091509150818015620001e257506020815110155b156200021a5760008180602001905181019062000200919062000825565b905060ff811162000218576001969095509350505050565b505b5060009485945092505050565b8151815181146200026f5760405162461bcd60e51b815260206004820152600d60248201526c1b195b99dd1a1cc81a591a5bdd609a1b60448201526064015b60405180910390fd5b6000805b828110156200034857600c8582815181106200029357620002936200083f565b60209081029190910181015182546001810184556000938452919092200180546001600160a01b0319166001600160a01b039092169190911790558351600d90859083908110620002e857620002e86200083f565b6020908102919091018101518254600181018455600093845291909220015583518490829081106200031e576200031e6200083f565b6020026020010151826200033391906200086b565b9150620003408162000887565b905062000273565b5080612710146200039c5760405162461bcd60e51b815260206004820152601560248201527f6e6f74206369656e746f20706572206369656e746f0000000000000000000000604482015260640162000266565b50505050565b80516001600160a01b0381168114620003ba57600080fd5b919050565b634e487b7160e01b600052604160045260246000fd5b604051601f8201601f191681016001600160401b0381118282101715620004005762000400620003bf565b604052919050565b60005b83811015620004255781810151838201526020016200040b565b50506000910152565b600082601f8301126200044057600080fd5b81516001600160401b038111156200045c576200045c620003bf565b62000471601f8201601f1916602001620003d5565b8181528460208386010111156200048757600080fd5b6200049a82602083016020870162000408565b949350505050565b60006001600160401b03821115620004be57620004be620003bf565b5060051b60200190565b600082601f830112620004da57600080fd5b81516020620004f3620004ed83620004a2565b620003d5565b82815260059290921b840181019181810190868411156200051357600080fd5b8286015b8481101562000539576200052b81620003a2565b835291830191830162000517565b509695505050505050565b600082601f8301126200055657600080fd5b8151602062000569620004ed83620004a2565b82815260059290921b840181019181810190868411156200058957600080fd5b8286015b848110156200053957805183529183019183016200058d565b60008060008060008060008060006101208a8c031215620005c657600080fd5b620005d18a620003a2565b9850620005e160208b01620003a2565b60408b01519098506001600160401b0380821115620005ff57600080fd5b6200060d8d838e016200042e565b985060608c01519150808211156200062457600080fd5b620006328d838e016200042e565b975060808c0151965060a08c015195506200065060c08d01620003a2565b945060e08c01519150808211156200066757600080fd5b620006758d838e01620004c8565b93506101008c01519150808211156200068d57600080fd5b506200069c8c828d0162000544565b9150509295985092959850929598565b600181811c90821680620006c157607f821691505b602082108103620006e257634e487b7160e01b600052602260045260246000fd5b50919050565b601f8211156200073657600081815260208120601f850160051c81016020861015620007115750805b601f850160051c820191505b8181101562000732578281556001016200071d565b5050505b505050565b81516001600160401b03811115620007575762000757620003bf565b6200076f81620007688454620006ac565b84620006e8565b602080601f831160018114620007a757600084156200078e5750858301515b600019600386901b1c1916600185901b17855562000732565b600085815260208120601f198616915b82811015620007d857888601518255948401946001909101908401620007b7565b5085821015620007f75787850151600019600388901b60f8161c191681555b5050505050600190811b01905550565b600082516200081b81846020870162000408565b9190910192915050565b6000602082840312156200083857600080fd5b5051919050565b634e487b7160e01b600052603260045260246000fd5b634e487b7160e01b600052601160045260246000fd5b8082018082111562000881576200088162000855565b92915050565b6000600182016200089c576200089c62000855565b5060010190565b60805160a05161288b62000908600039600061082a01526000818161034f015281816105c701528181610c9d015281816112c4015281816113ae015281816114de01528181611560015281816116c801528181611a8d0152611bec015261288b6000f3fe608060405234801561001057600080fd5b50600436106102535760003560e01c806370a0823111610146578063b5f163ff116100c3578063d905777e11610087578063d905777e146104fb578063dd62ed3e1461050e578063ef7898d014610521578063ef8b30f7146104d5578063f2fde38b14610541578063f887ea401461055457600080fd5b8063b5f163ff146104af578063ba087652146104c2578063c63d75b61461039a578063c6e6f592146104d5578063ce96cb77146104e857600080fd5b8063a457c2d71161010a578063a457c2d71461045a578063a7dc2cf51461046d578063a9059cbb14610476578063b3d7f6b914610489578063b460af941461049c57600080fd5b806370a08231146103fd578063715018a6146104265780638da5cb5b1461042e57806394bf804d1461043f57806395d89b411461045257600080fd5b80632929ee82116101d45780634cdad506116101985780634cdad506146102885780634f64b2be146103af5780635da9b72f146103c257806367e4ac2c146103d55780636e553f65146103ea57600080fd5b80632929ee821461031e578063313ce5671461033357806338d52e0f1461034d5780633950935114610387578063402d267d1461039a57600080fd5b80630a28a4771161021b5780630a28a477146102c757806318160ddd146102da57806323b872dd146102e2578063252cf2d2146102f5578063288fcba1146102fe57600080fd5b806301e1d1141461025857806306fdde031461027357806307a2d13a14610288578063095ea7b31461029b578063097d5155146102be575b600080fd5b610260610567565b6040519081526020015b60405180910390f35b61027b610661565b60405161026a91906120e3565b610260610296366004612116565b6106f3565b6102ae6102a936600461214b565b610706565b604051901515815260200161026a565b61026060065481565b6102606102d5366004612116565b61071e565b600354610260565b6102ae6102f0366004612175565b61072b565b61026060085481565b61026061030c366004612116565b600a6020526000908152604090205481565b61033161032c3660046122f7565b61074f565b005b61033b610822565b60405160ff909116815260200161026a565b7f00000000000000000000000000000000000000000000000000000000000000005b6040516001600160a01b03909116815260200161026a565b6102ae61039536600461214b565b610853565b6102606103a83660046123dd565b5060001990565b61036f6103bd366004612116565b610875565b6102606103d03660046123f8565b61089f565b6103dd6108b7565b60405161026a9190612424565b6102606103f83660046123f8565b610959565b61026061040b3660046123dd565b6001600160a01b031660009081526001602052604090205490565b610331610973565b6000546001600160a01b031661036f565b61026061044d3660046123f8565b610987565b61027b6109a1565b6102ae61046836600461214b565b6109b0565b61026060075481565b6102ae61048436600461214b565b610a2b565b610260610497366004612116565b610a39565b6102606104aa366004612468565b610a46565b6102606104bd366004612116565b610ac2565b6102606104d0366004612468565b610ae3565b6102606104e3366004612116565b610b57565b6102606104f63660046123dd565b610b64565b6102606105093660046123dd565b610b88565b61026061051c3660046124a4565b610ba6565b61026061052f3660046123dd565b60096020526000908152604090205481565b61033161054f3660046123dd565b610bd1565b600b5461036f906001600160a01b031681565b600c5460009081805b828110156105c4576105a8600c828154811061058e5761058e6124ce565b6000918252602090912001546001600160a01b0316610c4a565b6105b290836124fa565b91506105bd8161250d565b9050610570565b507f00000000000000000000000000000000000000000000000000000000000000006040516370a0823160e01b81523060048201526001600160a01b0391909116906370a0823190602401602060405180830381865afa15801561062c573d6000803e3d6000fd5b505050506040513d601f19601f820116820180604052508101906106509190612526565b61065a90826124fa565b9392505050565b6060600480546106709061253f565b80601f016020809104026020016040519081016040528092919081815260200182805461069c9061253f565b80156106e95780601f106106be576101008083540402835291602001916106e9565b820191906000526020600020905b8154815290600101906020018083116106cc57829003601f168201915b5050505050905090565b6000610700826000610e07565b92915050565b600033610714818585610e41565b5060019392505050565b6000610700826001610f65565b600033610739858285610f95565b61074485858561100f565b506001949350505050565b6107576111ba565b82518251811480156107695750815181145b6107aa5760405162461bcd60e51b815260206004820152600d60248201526c1b195b99dd1a1cc81a591a5bdd609a1b60448201526064015b60405180910390fd5b60005b8181101561081b5761080b8582815181106107ca576107ca6124ce565b60200260200101518583815181106107e4576107e46124ce565b60200260200101518584815181106107fe576107fe6124ce565b6020026020010151611214565b6108148161250d565b90506107ad565b5050505050565b600061084e817f0000000000000000000000000000000000000000000000000000000000000000612579565b905090565b6000336107148185856108668383610ba6565b61087091906124fa565b610e41565b600c818154811061088557600080fd5b6000918252602090912001546001600160a01b0316905081565b6000806108ac8484610959565b905061065a84611233565b600c5460609060008167ffffffffffffffff8111156108d8576108d86121b1565b604051908082528060200260200182016040528015610901578160200160208202803683370190505b50905060005b8281101561095257610925600c828154811061058e5761058e6124ce565b828281518110610937576109376124ce565b602090810291909101015261094b8161250d565b9050610907565b5092915050565b60008061096584610b57565b905061065a338486846112bf565b61097b6111ba565b6109856000611351565b565b60008061099384610a39565b905061065a338483876112bf565b6060600580546106709061253f565b600033816109be8286610ba6565b905083811015610a1e5760405162461bcd60e51b815260206004820152602560248201527f45524332303a2064656372656173656420616c6c6f77616e63652062656c6f77604482015264207a65726f60d81b60648201526084016107a1565b6107448286868403610e41565b60003361071481858561100f565b6000610700826001610e07565b6000610a5182610b64565b841115610aa05760405162461bcd60e51b815260206004820152601f60248201527f455243343632363a207769746864726177206d6f7265207468616e206d61780060448201526064016107a1565b6000610aab8561071e565b9050610aba33858588856113a1565b949350505050565b600d8181548110610ad257600080fd5b600091825260209091200154905081565b6000610aee82610b88565b841115610b3d5760405162461bcd60e51b815260206004820152601d60248201527f455243343632363a2072656465656d206d6f7265207468616e206d617800000060448201526064016107a1565b6000610b48856106f3565b9050610aba33858584896113a1565b6000610700826000610f65565b6001600160a01b038116600090815260016020526040812054610700906000610e07565b6001600160a01b038116600090815260016020526040812054610700565b6001600160a01b03918216600090815260026020908152604080832093909416825291909152205490565b610bd96111ba565b6001600160a01b038116610c3e5760405162461bcd60e51b815260206004820152602660248201527f4f776e61626c653a206e6577206f776e657220697320746865207a65726f206160448201526564647265737360d01b60648201526084016107a1565b610c4781611351565b50565b604080516002808252606082018352600092839291906020830190803683370190505090508281600081518110610c8357610c836124ce565b6001600160a01b03909216602092830291909101909101527f000000000000000000000000000000000000000000000000000000000000000081600181518110610ccf57610ccf6124ce565b6001600160a01b0392831660209182029290920101526040516370a0823160e01b81523060048201526000918516906370a0823190602401602060405180830381865afa158015610d24573d6000803e3d6000fd5b505050506040513d601f19601f82011682018060405250810190610d489190612526565b905080600003610d5c575060009392505050565b600b5460405163d06ca61f60e01b81526000916001600160a01b03169063d06ca61f90610d8f90859087906004016125d6565b600060405180830381865afa158015610dac573d6000803e3d6000fd5b505050506040513d6000823e601f3d908101601f19168201604052610dd491908101906125ef565b90508060018251610de59190612675565b81518110610df557610df56124ce565b60200260200101519350505050919050565b600061065a610e14610567565b610e1f9060016124fa565b610e2b6000600a61276c565b600354610e3891906124fa565b8591908561145a565b6001600160a01b038316610ea35760405162461bcd60e51b8152602060048201526024808201527f45524332303a20617070726f76652066726f6d20746865207a65726f206164646044820152637265737360e01b60648201526084016107a1565b6001600160a01b038216610f045760405162461bcd60e51b815260206004820152602260248201527f45524332303a20617070726f766520746f20746865207a65726f206164647265604482015261737360f01b60648201526084016107a1565b6001600160a01b0383811660008181526002602090815260408083209487168084529482529182902085905590518481527f8c5be1e5ebec7d5bd14f71427d1e84f3dd0314c0f7b2291e5b200ac8c7c3b925910160405180910390a3505050565b600061065a610f7582600a61276c565b600354610f8291906124fa565b610f8a610567565b610e389060016124fa565b6000610fa18484610ba6565b905060001981146110095781811015610ffc5760405162461bcd60e51b815260206004820152601d60248201527f45524332303a20696e73756666696369656e7420616c6c6f77616e636500000060448201526064016107a1565b6110098484848403610e41565b50505050565b6001600160a01b0383166110735760405162461bcd60e51b815260206004820152602560248201527f45524332303a207472616e736665722066726f6d20746865207a65726f206164604482015264647265737360d81b60648201526084016107a1565b6001600160a01b0382166110d55760405162461bcd60e51b815260206004820152602360248201527f45524332303a207472616e7366657220746f20746865207a65726f206164647260448201526265737360e81b60648201526084016107a1565b6001600160a01b0383166000908152600160205260409020548181101561114d5760405162461bcd60e51b815260206004820152602660248201527f45524332303a207472616e7366657220616d6f756e7420657863656564732062604482015265616c616e636560d01b60648201526084016107a1565b6001600160a01b0380851660008181526001602052604080822086860390559286168082529083902080548601905591517fddf252ad1be2c89b69c2b068fc378daa952ba7f163c4a11628f55a4df523b3ef906111ad9086815260200190565b60405180910390a3611009565b6000546001600160a01b031633146109855760405162461bcd60e51b815260206004820181905260248201527f4f776e61626c653a2063616c6c6572206973206e6f7420746865206f776e657260448201526064016107a1565b82156112245761100982826114b7565b6110098282611675565b505050565b600c5460005b8181101561122e576000612710600d8381548110611259576112596124ce565b90600052602060002001548561126f919061277b565b61127991906127a8565b90506112ac600c8381548110611291576112916124ce565b6000918252602090912001546001600160a01b0316826114b7565b5050806112b89061250d565b9050611239565b6112eb7f000000000000000000000000000000000000000000000000000000000000000085308561195c565b6112f583826119c7565b826001600160a01b0316846001600160a01b03167fdcbc1c05240f31ff3ad067ef1ee35ce4997762752e3a095284754544f4c709d78484604051611343929190918252602082015260400190565b60405180910390a350505050565b600080546001600160a01b038381166001600160a01b0319831681178455604051919092169283917f8be0079c531659141344cd1fd0a4f28419497f9722a3daafe3b4186f6b6457e09190a35050565b6113aa82611a89565b60007f00000000000000000000000000000000000000000000000000000000000000006040516370a0823160e01b81523060048201526001600160a01b0391909116906370a0823190602401602060405180830381865afa158015611413573d6000803e3d6000fd5b505050506040513d601f19601f820116820180604052508101906114379190612526565b905080831115611445578092505b6114528686868686611bb9565b505050505050565b600080611468868686611c79565b9050600183600281111561147e5761147e6127ca565b14801561149b57506000848061149657611496612792565b868809115b156114ae576114ab6001826124fa565b90505b95945050505050565b604080516002808252606080830184529260009291906020830190803683370190505090507f000000000000000000000000000000000000000000000000000000000000000081600081518110611510576115106124ce565b60200260200101906001600160a01b031690816001600160a01b0316815250508381600181518110611544576115446124ce565b6001600160a01b039092166020928302919091019091015260007f0000000000000000000000000000000000000000000000000000000000000000600b5460405163095ea7b360e01b81526001600160a01b0391821660048201526024810187905291169063095ea7b3906044016020604051808303816000875af11580156115d1573d6000803e3d6000fd5b505050506040513d601f19601f820116820180604052508101906115f591906127e0565b50600b546040516338ed173960e01b81526001600160a01b03909116906338ed17399061162e90879085908790309042906004016127fd565b6000604051808303816000875af115801561164d573d6000803e3d6000fd5b505050506040513d6000823e601f3d908101601f191682016040526114ae91908101906125ef565b6040805160028082526060808301845292600092919060208301908036833701905050905083816000815181106116ae576116ae6124ce565b6001600160a01b03909216602092830291909101909101527f0000000000000000000000000000000000000000000000000000000000000000816001815181106116fa576116fa6124ce565b6001600160a01b0392831660209182029290920101526040516370a0823160e01b81523060048201526000918616906370a0823190602401602060405180830381865afa15801561174f573d6000803e3d6000fd5b505050506040513d601f19601f820116820180604052508101906117739190612526565b600b5460405163095ea7b360e01b81526001600160a01b0391821660048201526024810183905291925086169063095ea7b3906044016020604051808303816000875af11580156117c8573d6000803e3d6000fd5b505050506040513d601f19601f820116820180604052508101906117ec91906127e0565b50600b5460405163d06ca61f60e01b81526000916001600160a01b03169063d06ca61f9061182090859087906004016125d6565b600060405180830381865afa15801561183d573d6000803e3d6000fd5b505050506040513d6000823e601f3d908101601f1916820160405261186591908101906125ef565b9050600081600183516118789190612675565b81518110611888576118886124ce565b602002602001015190508581101561192457600b54604051634401edf760e11b81526001600160a01b0390911690638803dbee906118d290849087908990309042906004016127fd565b6000604051808303816000875af11580156118f1573d6000803e3d6000fd5b505050506040513d6000823e601f3d908101601f1916820160405261191991908101906125ef565b945050505050610700565b600b54604051634401edf760e11b81526001600160a01b0390911690638803dbee906118d290899087908990309042906004016127fd565b6040516001600160a01b03808516602483015283166044820152606481018290526110099085906323b872dd60e01b906084015b60408051601f198184030181529190526020810180516001600160e01b03166001600160e01b031990931692909217909152611d63565b6001600160a01b038216611a1d5760405162461bcd60e51b815260206004820152601f60248201527f45524332303a206d696e7420746f20746865207a65726f20616464726573730060448201526064016107a1565b8060036000828254611a2f91906124fa565b90915550506001600160a01b0382166000818152600160209081526040808320805486019055518481527fddf252ad1be2c89b69c2b068fc378daa952ba7f163c4a11628f55a4df523b3ef910160405180910390a35b5050565b60007f00000000000000000000000000000000000000000000000000000000000000006040516370a0823160e01b81523060048201526001600160a01b0391909116906370a0823190602401602060405180830381865afa158015611af2573d6000803e3d6000fd5b505050506040513d601f19601f82011682018060405250810190611b169190612526565b905081811015611a8557611b2a8183612675565b600c5490925060005b81811015611009576000612710600d8381548110611b5357611b536124ce565b906000526020600020015486611b69919061277b565b611b7391906127a8565b9050611ba6600c8381548110611b8b57611b8b6124ce565b6000918252602090912001546001600160a01b031682611675565b505080611bb29061250d565b9050611b33565b826001600160a01b0316856001600160a01b031614611bdd57611bdd838683610f95565b611be78382611e38565b611c127f00000000000000000000000000000000000000000000000000000000000000008584611f6c565b826001600160a01b0316846001600160a01b0316866001600160a01b03167ffbde797d201c681b91056529119e0b02407c7bb96a4a2c75c01fc9667232c8db8585604051611c6a929190918252602082015260400190565b60405180910390a45050505050565b6000808060001985870985870292508281108382030391505080600003611cb357838281611ca957611ca9612792565b049250505061065a565b808411611cfa5760405162461bcd60e51b81526020600482015260156024820152744d6174683a206d756c446976206f766572666c6f7760581b60448201526064016107a1565b60008486880960026001871981018816978890046003810283188082028403028082028403028082028403028082028403028082028403029081029092039091026000889003889004909101858311909403939093029303949094049190911702949350505050565b6000611db8826040518060400160405280602081526020017f5361666545524332303a206c6f772d6c6576656c2063616c6c206661696c6564815250856001600160a01b0316611f9c9092919063ffffffff16565b9050805160001480611dd9575080806020019051810190611dd991906127e0565b61122e5760405162461bcd60e51b815260206004820152602a60248201527f5361666545524332303a204552433230206f7065726174696f6e20646964206e6044820152691bdd081cdd58d8d9595960b21b60648201526084016107a1565b6001600160a01b038216611e985760405162461bcd60e51b815260206004820152602160248201527f45524332303a206275726e2066726f6d20746865207a65726f206164647265736044820152607360f81b60648201526084016107a1565b6001600160a01b03821660009081526001602052604090205481811015611f0c5760405162461bcd60e51b815260206004820152602260248201527f45524332303a206275726e20616d6f756e7420657863656564732062616c616e604482015261636560f01b60648201526084016107a1565b6001600160a01b03831660008181526001602090815260408083208686039055600380548790039055518581529192917fddf252ad1be2c89b69c2b068fc378daa952ba7f163c4a11628f55a4df523b3ef910160405180910390a3505050565b6040516001600160a01b03831660248201526044810182905261122e90849063a9059cbb60e01b90606401611990565b6060610aba848460008585600080866001600160a01b03168587604051611fc39190612839565b60006040518083038185875af1925050503d8060008114612000576040519150601f19603f3d011682016040523d82523d6000602084013e612005565b606091505b509150915061201687838387612021565b979650505050505050565b60608315612090578251600003612089576001600160a01b0385163b6120895760405162461bcd60e51b815260206004820152601d60248201527f416464726573733a2063616c6c20746f206e6f6e2d636f6e747261637400000060448201526064016107a1565b5081610aba565b610aba83838151156120a55781518083602001fd5b8060405162461bcd60e51b81526004016107a191906120e3565b60005b838110156120da5781810151838201526020016120c2565b50506000910152565b60208152600082518060208401526121028160408501602087016120bf565b601f01601f19169190910160400192915050565b60006020828403121561212857600080fd5b5035919050565b80356001600160a01b038116811461214657600080fd5b919050565b6000806040838503121561215e57600080fd5b6121678361212f565b946020939093013593505050565b60008060006060848603121561218a57600080fd5b6121938461212f565b92506121a16020850161212f565b9150604084013590509250925092565b634e487b7160e01b600052604160045260246000fd5b604051601f8201601f1916810167ffffffffffffffff811182821017156121f0576121f06121b1565b604052919050565b600067ffffffffffffffff821115612212576122126121b1565b5060051b60200190565b8015158114610c4757600080fd5b600082601f83011261223b57600080fd5b8135602061225061224b836121f8565b6121c7565b82815260059290921b8401810191818101908684111561226f57600080fd5b8286015b84811015612291576122848161212f565b8352918301918301612273565b509695505050505050565b600082601f8301126122ad57600080fd5b813560206122bd61224b836121f8565b82815260059290921b840181019181810190868411156122dc57600080fd5b8286015b8481101561229157803583529183019183016122e0565b60008060006060848603121561230c57600080fd5b833567ffffffffffffffff8082111561232457600080fd5b818601915086601f83011261233857600080fd5b8135602061234861224b836121f8565b82815260059290921b8401810191818101908a84111561236757600080fd5b948201945b8386101561238e57853561237f8161221c565b8252948201949082019061236c565b975050870135925050808211156123a457600080fd5b6123b08783880161222a565b935060408601359150808211156123c657600080fd5b506123d38682870161229c565b9150509250925092565b6000602082840312156123ef57600080fd5b61065a8261212f565b6000806040838503121561240b57600080fd5b8235915061241b6020840161212f565b90509250929050565b6020808252825182820181905260009190848201906040850190845b8181101561245c57835183529284019291840191600101612440565b50909695505050505050565b60008060006060848603121561247d57600080fd5b8335925061248d6020850161212f565b915061249b6040850161212f565b90509250925092565b600080604083850312156124b757600080fd5b6124c08361212f565b915061241b6020840161212f565b634e487b7160e01b600052603260045260246000fd5b634e487b7160e01b600052601160045260246000fd5b80820180821115610700576107006124e4565b60006001820161251f5761251f6124e4565b5060010190565b60006020828403121561253857600080fd5b5051919050565b600181811c9082168061255357607f821691505b60208210810361257357634e487b7160e01b600052602260045260246000fd5b50919050565b60ff8181168382160190811115610700576107006124e4565b600081518084526020808501945080840160005b838110156125cb5781516001600160a01b0316875295820195908201906001016125a6565b509495945050505050565b828152604060208201526000610aba6040830184612592565b6000602080838503121561260257600080fd5b825167ffffffffffffffff81111561261957600080fd5b8301601f8101851361262a57600080fd5b805161263861224b826121f8565b81815260059190911b8201830190838101908783111561265757600080fd5b928401925b828410156120165783518252928401929084019061265c565b81810381811115610700576107006124e4565b600181815b808511156126c35781600019048211156126a9576126a96124e4565b808516156126b657918102915b93841c939080029061268d565b509250929050565b6000826126da57506001610700565b816126e757506000610700565b81600181146126fd576002811461270757612723565b6001915050610700565b60ff841115612718576127186124e4565b50506001821b610700565b5060208310610133831016604e8410600b8410161715612746575081810a610700565b6127508383612688565b8060001904821115612764576127646124e4565b029392505050565b600061065a60ff8416836126cb565b8082028115828204841417610700576107006124e4565b634e487b7160e01b600052601260045260246000fd5b6000826127c557634e487b7160e01b600052601260045260246000fd5b500490565b634e487b7160e01b600052602160045260246000fd5b6000602082840312156127f257600080fd5b815161065a8161221c565b85815284602082015260a06040820152600061281c60a0830186612592565b6001600160a01b0394909416606083015250608001529392505050565b6000825161284b8184602087016120bf565b919091019291505056fea26469706673582212206d785d73a40211c3c658717e89258fcb1fe8854cb4511bae7438e8389d84fc8e64736f6c63430008130033","linkReferences":{}},"methodIdentifiers":{"actionsPerBlock(uint256)":"288fcba1","allowance(address,address)":"dd62ed3e","approve(address,uint256)":"095ea7b3","asset()":"38d52e0f","balanceOf(address)":"70a08231","convertToAssets(uint256)":"07a2d13a","convertToShares(uint256)":"c6e6f592","decimals()":"313ce567","decreaseAllowance(address,uint256)":"a457c2d7","deposit(uint256,address)":"6e553f65","depositAndOperate(uint256,address)":"5da9b72f","getAssets()":"67e4ac2c","holdTime()":"097d5155","increaseAllowance(address,uint256)":"39509351","lastBuyTimestamp(address)":"ef7898d0","maxActionsPerBlock()":"a7dc2cf5","maxDeposit(address)":"402d267d","maxMint(address)":"c63d75b6","maxRedeem(address)":"d905777e","maxWithdraw(address)":"ce96cb77","minLiquidity()":"252cf2d2","mint(uint256,address)":"94bf804d","name()":"06fdde03","operateBatch(bool[],address[],uint256[])":"2929ee82","owner()":"8da5cb5b","previewDeposit(uint256)":"ef8b30f7","previewMint(uint256)":"b3d7f6b9","previewRedeem(uint256)":"4cdad506","previewWithdraw(uint256)":"0a28a477","redeem(uint256,address,address)":"ba087652","renounceOwnership()":"715018a6","router()":"f887ea40","symbol()":"95d89b41","tokens(uint256)":"4f64b2be","totalAssets()":"01e1d114","totalSupply()":"18160ddd","transfer(address,uint256)":"a9059cbb","transferFrom(address,address,uint256)":"23b872dd","transferOwnership(address)":"f2fde38b","weights(uint256)":"b5f163ff","withdraw(uint256,address,address)":"b460af94"},"id":38}