{"abi":[{"type":"constructor","inputs":[{"name":"initialOwner","type":"address","internalType":"address"},{"name":"asset_","type":"address","internalType":"contract IERC20"},{"name":"symbol_","type":"string","internalType":"string"},{"name":"name_","type":"string","internalType":"string"},{"name":"holdTime_","type":"uint256","internalType":"uint256"},{"name":"maxActionsPerBlock_","type":"uint256","internalType":"uint256"},{"name":"router_","type":"address","internalType":"address"},{"name":"tokens_","type":"address[]","internalType":"address[]"},{"name":"weights_","type":"uint256[]","internalType":"uint256[]"}],"stateMutability":"nonpayable"},{"type":"function","name":"actionsPerBlock","inputs":[{"name":"","type":"uint256","internalType":"uint256"}],"outputs":[{"name":"","type":"uint256","internalType":"uint256"}],"stateMutability":"view"},{"type":"function","name":"allowance","inputs":[{"name":"owner","type":"address","internalType":"address"},{"name":"spender","type":"address","internalType":"address"}],"outputs":[{"name":"","type":"uint256","internalType":"uint256"}],"stateMutability":"view"},{"type":"function","name":"approve","inputs":[{"name":"spender","type":"address","internalType":"address"},{"name":"amount","type":"uint256","internalType":"uint256"}],"outputs":[{"name":"","type":"bool","internalType":"bool"}],"stateMutability":"nonpayable"},{"type":"function","name":"asset","inputs":[],"outputs":[{"name":"","type":"address","internalType":"address"}],"stateMutability":"view"},{"type":"function","name":"balanceOf","inputs":[{"name":"account","type":"address","internalType":"address"}],"outputs":[{"name":"","type":"uint256","internalType":"uint256"}],"stateMutability":"view"},{"type":"function","name":"convertToAssets","inputs":[{"name":"shares","type":"uint256","internalType":"uint256"}],"outputs":[{"name":"","type":"uint256","internalType":"uint256"}],"stateMutability":"view"},{"type":"function","name":"convertToShares","inputs":[{"name":"assets","type":"uint256","internalType":"uint256"}],"outputs":[{"name":"","type":"uint256","internalType":"uint256"}],"stateMutability":"view"},{"type":"function","name":"decimals","inputs":[],"outputs":[{"name":"","type":"uint8","internalType":"uint8"}],"stateMutability":"view"},{"type":"function","name":"decreaseAllowance","inputs":[{"name":"spender","type":"address","internalType":"address"},{"name":"subtractedValue","type":"uint256","internalType":"uint256"}],"outputs":[{"name":"","type":"bool","internalType":"bool"}],"stateMutability":"nonpayable"},{"type":"function","name":"deposit","inputs":[{"name":"assets","type":"uint256","internalType":"uint256"},{"name":"receiver","type":"address","internalType":"address"}],"outputs":[{"name":"","type":"uint256","internalType":"uint256"}],"stateMutability":"nonpayable"},{"type":"function","name":"depositAndOperate","inputs":[{"name":"assets","type":"uint256","internalType":"uint256"},{"name":"receiver","type":"address","internalType":"address"}],"outputs":[{"name":"","type":"uint256","internalType":"uint256"}],"stateMutability":"nonpayable"},{"type":"function","name":"holdTime","inputs":[],"outputs":[{"name":"","type":"uint256","internalType":"uint256"}],"stateMutability":"view"},{"type":"function","name":"increaseAllowance","inputs":[{"name":"spender","type":"address","internalType":"address"},{"name":"addedValue","type":"uint256","internalType":"uint256"}],"outputs":[{"name":"","type":"bool","internalType":"bool"}],"stateMutability":"nonpayable"},{"type":"function","name":"lastBuyTimestamp","inputs":[{"name":"","type":"address","internalType":"address"}],"outputs":[{"name":"","type":"uint256","internalType":"uint256"}],"stateMutability":"view"},{"type":"function","name":"maxActionsPerBlock","inputs":[],"outputs":[{"name":"","type":"uint256","internalType":"uint256"}],"stateMutability":"view"},{"type":"function","name":"maxDeposit","inputs":[{"name":"","type":"address","internalType":"address"}],"outputs":[{"name":"","type":"uint256","internalType":"uint256"}],"stateMutability":"view"},{"type":"function","name":"maxMint","inputs":[{"name":"","type":"address","internalType":"address"}],"outputs":[{"name":"","type":"uint256","internalType":"uint256"}],"stateMutability":"view"},{"type":"function","name":"maxRedeem","inputs":[{"name":"owner","type":"address","internalType":"address"}],"outputs":[{"name":"","type":"uint256","internalType":"uint256"}],"stateMutability":"view"},{"type":"function","name":"maxWithdraw","inputs":[{"name":"owner","type":"address","internalType":"address"}],"outputs":[{"name":"","type":"uint256","internalType":"uint256"}],"stateMutability":"view"},{"type":"function","name":"minLiquidity","inputs":[],"outputs":[{"name":"","type":"uint256","internalType":"uint256"}],"stateMutability":"view"},{"type":"function","name":"mint","inputs":[{"name":"shares","type":"uint256","internalType":"uint256"},{"name":"receiver","type":"address","internalType":"address"}],"outputs":[{"name":"","type":"uint256","internalType":"uint256"}],"stateMutability":"nonpayable"},{"type":"function","name":"name","inputs":[],"outputs":[{"name":"","type":"string","internalType":"string"}],"stateMutability":"view"},{"type":"function","name":"operateBatch","inputs":[{"name":"isBuy_","type":"bool[]","internalType":"bool[]"},{"name":"tokens_","type":"address[]","internalType":"address[]"},{"name":"assets_","type":"uint256[]","internalType":"uint256[]"}],"outputs":[],"stateMutability":"nonpayable"},{"type":"function","name":"owner","inputs":[],"outputs":[{"name":"","type":"address","internalType":"address"}],"stateMutability":"view"},{"type":"function","name":"previewDeposit","inputs":[{"name":"assets","type":"uint256","internalType":"uint256"}],"outputs":[{"name":"","type":"uint256","internalType":"uint256"}],"stateMutability":"view"},{"type":"function","name":"previewMint","inputs":[{"name":"shares","type":"uint256","internalType":"uint256"}],"outputs":[{"name":"","type":"uint256","internalType":"uint256"}],"stateMutability":"view"},{"type":"function","name":"previewRedeem","inputs":[{"name":"shares","type":"uint256","internalType":"uint256"}],"outputs":[{"name":"","type":"uint256","internalType":"uint256"}],"stateMutability":"view"},{"type":"function","name":"previewWithdraw","inputs":[{"name":"assets","type":"uint256","internalType":"uint256"}],"outputs":[{"name":"","type":"uint256","internalType":"uint256"}],"stateMutability":"view"},{"type":"function","name":"redeem","inputs":[{"name":"shares","type":"uint256","internalType":"uint256"},{"name":"receiver","type":"address","internalType":"address"},{"name":"owner","type":"address","internalType":"address"}],"outputs":[{"name":"","type":"uint256","internalType":"uint256"}],"stateMutability":"nonpayable"},{"type":"function","name":"renounceOwnership","inputs":[],"outputs":[],"stateMutability":"nonpayable"},{"type":"function","name":"router","inputs":[],"outputs":[{"name":"","type":"address","internalType":"contract IUniswapV2Router02"}],"stateMutability":"view"},{"type":"function","name":"symbol","inputs":[],"outputs":[{"name":"","type":"string","internalType":"string"}],"stateMutability":"view"},{"type":"function","name":"tokens","inputs":[{"name":"","type":"uint256","internalType":"uint256"}],"outputs":[{"name":"","type":"address","internalType":"address"}],"stateMutability":"view"},{"type":"function","name":"totalAssets","inputs":[],"outputs":[{"name":"","type":"uint256","internalType":"uint256"}],"stateMutability":"view"},{"type":"function","name":"totalSupply","inputs":[],"outputs":[{"name":"","type":"uint256","internalType":"uint256"}],"stateMutability":"view"},{"type":"function","name":"transfer","inputs":[{"name":"to","type":"address","internalType":"address"},{"name":"amount","type":"uint256","internalType":"uint256"}],"outputs":[{"name":"","type":"bool","internalType":"bool"}],"stateMutability":"nonpayable"},{"type":"function","name":"transferFrom","inputs":[{"name":"from","type":"address","internalType":"address"},{"name":"to","type":"address","internalType":"address"},{"name":"amount","type":"uint256","internalType":"uint256"}],"outputs":[{"name":"","type":"bool","internalType":"bool"}],"stateMutability":"nonpayable"},{"type":"function","name":"transferOwnership","inputs":[{"name":"newOwner","type":"address","internalType":"address"}],"outputs":[],"stateMutability":"nonpayable"},{"type":"function","name":"weights","inputs":[{"name":"","type":"uint256","internalType":"uint256"}],"outputs":[{"name":"","type":"uint256","internalType":"uint256"}],"stateMutability":"view"},{"type":"function","name":"withdraw","inputs":[{"name":"assets","type":"uint256","internalType":"uint256"},{"name":"receiver","type":"address","internalType":"address"},{"name":"owner","type":"address","internalType":"address"}],"outputs":[{"name":"","type":"uint256","internalType":"uint256"}],"stateMutability":"nonpayable"},{"type":"event","name":"Approval","inputs":[{"name":"owner","type":"address","indexed":true,"internalType":"address"},{"name":"spender","type":"address","indexed":true,"internalType":"address"},{"name":"value","type":"uint256","indexed":false,"internalType":"uint256"}],"anonymous":false},{"type":"event","name":"Deposit","inputs":[{"name":"sender","type":"address","indexed":true,"internalType":"address"},{"name":"owner","type":"address","indexed":true,"internalType":"address"},{"name":"assets","type":"uint256","indexed":false,"internalType":"uint256"},{"name":"shares","type":"uint256","indexed":false,"internalType":"uint256"}],"anonymous":false},{"type":"event","name":"OwnershipTransferred","inputs":[{"name":"previousOwner","type":"address","indexed":true,"internalType":"address"},{"name":"newOwner","type":"address","indexed":true,"internalType":"address"}],"anonymous":false},{"type":"event","name":"TokenStatus","inputs":[{"name":"token","type":"address","indexed":true,"internalType":"address"},{"name":"status","type":"bool","indexed":false,"internalType":"bool"}],"anonymous":false},{"type":"event","name":"Transfer","inputs":[{"name":"from","type":"address","indexed":true,"internalType":"address"},{"name":"to","type":"address","indexed":true,"internalType":"address"},{"name":"value","type":"uint256","indexed":false,"internalType":"uint256"}],"anonymous":false},{"type":"event","name":"Withdraw","inputs":[{"name":"sender","type":"address","indexed":true,"internalType":"address"},{"name":"receiver","type":"address","indexed":true,"internalType":"address"},{"name":"owner","type":"address","indexed":true,"internalType":"address"},{"name":"assets","type":"uint256","indexed":false,"internalType":"uint256"},{"name":"shares","type":"uint256","indexed":false,"internalType":"uint256"}],"anonymous":false}],"bytecode":{"object":"0x60c06040523480156200001157600080fd5b5060405162002f1838038062002f188339810160408190526200003491620005b6565b87878787878484846200004733620000f2565b60046200005583826200074b565b5060056200006482826200074b565b5050506000806200007b836200014260201b60201c565b91509150816200008d5760126200008f565b805b60ff1660a05250506001600160a01b031660805260069190915560075550620000bc91508a9050620000f2565b600b80546001600160a01b0319166001600160a01b038516179055620000e3828262000227565b505050505050505050620008b3565b600080546001600160a01b038381166001600160a01b0319831681178455604051919092169283917f8be0079c531659141344cd1fd0a4f28419497f9722a3daafe3b4186f6b6457e09190a35050565b60408051600481526024810182526020810180516001600160e01b031663313ce56760e01b17905290516000918291829182916001600160a01b038716916200018b9162000817565b600060405180830381855afa9150503d8060008114620001c8576040519150601f19603f3d011682016040523d82523d6000602084013e620001cd565b606091505b5091509150818015620001e257506020815110155b156200021a5760008180602001905181019062000200919062000835565b905060ff811162000218576001969095509350505050565b505b5060009485945092505050565b8151815181146200026f5760405162461bcd60e51b815260206004820152600d60248201526c1b195b99dd1a1cc81a591a5bdd609a1b60448201526064015b60405180910390fd5b6000805b828110156200034857600c8582815181106200029357620002936200084f565b60209081029190910181015182546001810184556000938452919092200180546001600160a01b0319166001600160a01b039092169190911790558351600d90859083908110620002e857620002e86200084f565b6020908102919091018101518254600181018455600093845291909220015583518490829081106200031e576200031e6200084f565b6020026020010151826200033391906200087b565b9150620003408162000897565b905062000273565b5080612710146200039c5760405162461bcd60e51b815260206004820152601560248201527f6e6f74206369656e746f20706572206369656e746f0000000000000000000000604482015260640162000266565b50505050565b6001600160a01b0381168114620003b857600080fd5b50565b8051620003c881620003a2565b919050565b634e487b7160e01b600052604160045260246000fd5b604051601f8201601f191681016001600160401b03811182821017156200040e576200040e620003cd565b604052919050565b60005b838110156200043357818101518382015260200162000419565b50506000910152565b600082601f8301126200044e57600080fd5b81516001600160401b038111156200046a576200046a620003cd565b6200047f601f8201601f1916602001620003e3565b8181528460208386010111156200049557600080fd5b620004a882602083016020870162000416565b949350505050565b60006001600160401b03821115620004cc57620004cc620003cd565b5060051b60200190565b600082601f830112620004e857600080fd5b8151602062000501620004fb83620004b0565b620003e3565b82815260059290921b840181019181810190868411156200052157600080fd5b8286015b84811015620005495780516200053b81620003a2565b835291830191830162000525565b509695505050505050565b600082601f8301126200056657600080fd5b8151602062000579620004fb83620004b0565b82815260059290921b840181019181810190868411156200059957600080fd5b8286015b848110156200054957805183529183019183016200059d565b60008060008060008060008060006101208a8c031215620005d657600080fd5b620005e18a620003bb565b9850620005f160208b01620003bb565b60408b01519098506001600160401b03808211156200060f57600080fd5b6200061d8d838e016200043c565b985060608c01519150808211156200063457600080fd5b620006428d838e016200043c565b975060808c0151965060a08c015195506200066060c08d01620003bb565b945060e08c01519150808211156200067757600080fd5b620006858d838e01620004d6565b93506101008c01519150808211156200069d57600080fd5b50620006ac8c828d0162000554565b9150509295985092959850929598565b600181811c90821680620006d157607f821691505b602082108103620006f257634e487b7160e01b600052602260045260246000fd5b50919050565b601f8211156200074657600081815260208120601f850160051c81016020861015620007215750805b601f850160051c820191505b8181101562000742578281556001016200072d565b5050505b505050565b81516001600160401b03811115620007675762000767620003cd565b6200077f81620007788454620006bc565b84620006f8565b602080601f831160018114620007b757600084156200079e5750858301515b600019600386901b1c1916600185901b17855562000742565b600085815260208120601f198616915b82811015620007e857888601518255948401946001909101908401620007c7565b5085821015620008075787850151600019600388901b60f8161c191681555b5050505050600190811b01905550565b600082516200082b81846020870162000416565b9190910192915050565b6000602082840312156200084857600080fd5b5051919050565b634e487b7160e01b600052603260045260246000fd5b634e487b7160e01b600052601160045260246000fd5b8082018082111562000891576200089162000865565b92915050565b600060018201620008ac57620008ac62000865565b5060010190565b60805160a05161260e6200090a600039600061080a015260008181610344015281816105a701528181610bdb0152818161120d01528181611469015281816114eb0152818161165301526119a7015261260e6000f3fe608060405234801561001057600080fd5b50600436106102485760003560e01c8063715018a61161013b578063ba087652116100b8578063dd62ed3e1161007c578063dd62ed3e146104ee578063ef7898d014610501578063ef8b30f7146104b5578063f2fde38b14610521578063f887ea401461053457600080fd5b8063ba087652146104a2578063c63d75b61461038f578063c6e6f592146104b5578063ce96cb77146104c8578063d905777e146104db57600080fd5b8063a7dc2cf5116100ff578063a7dc2cf51461044d578063a9059cbb14610456578063b3d7f6b914610469578063b460af941461047c578063b5f163ff1461048f57600080fd5b8063715018a6146104065780638da5cb5b1461040e57806394bf804d1461041f57806395d89b4114610432578063a457c2d71461043a57600080fd5b80632929ee82116101c95780634cdad5061161018d5780634cdad5061461027d5780634f64b2be146103a45780635da9b72f146103b75780636e553f65146103ca57806370a08231146103dd57600080fd5b80632929ee8214610313578063313ce5671461032857806338d52e0f14610342578063395093511461037c578063402d267d1461038f57600080fd5b80630a28a477116102105780630a28a477146102bc57806318160ddd146102cf57806323b872dd146102d7578063252cf2d2146102ea578063288fcba1146102f357600080fd5b806301e1d1141461024d57806306fdde031461026857806307a2d13a1461027d578063095ea7b314610290578063097d5155146102b3575b600080fd5b610255610547565b6040519081526020015b60405180910390f35b610270610641565b60405161025f9190611eaa565b61025561028b366004611edd565b6106d3565b6102a361029e366004611f12565b6106e6565b604051901515815260200161025f565b61025560065481565b6102556102ca366004611edd565b6106fe565b600354610255565b6102a36102e5366004611f3c565b61070b565b61025560085481565b610255610301366004611edd565b600a6020526000908152604090205481565b6103266103213660046120be565b61072f565b005b610330610802565b60405160ff909116815260200161025f565b7f00000000000000000000000000000000000000000000000000000000000000005b6040516001600160a01b03909116815260200161025f565b6102a361038a366004611f12565b610833565b61025561039d3660046121a4565b5060001990565b6103646103b2366004611edd565b610855565b6102556103c53660046121bf565b61087f565b6102556103d83660046121bf565b610897565b6102556103eb3660046121a4565b6001600160a01b031660009081526001602052604090205490565b6103266108b1565b6000546001600160a01b0316610364565b61025561042d3660046121bf565b6108c5565b6102706108df565b6102a3610448366004611f12565b6108ee565b61025560075481565b6102a3610464366004611f12565b610969565b610255610477366004611edd565b610977565b61025561048a3660046121eb565b610984565b61025561049d366004611edd565b610a00565b6102556104b03660046121eb565b610a21565b6102556104c3366004611edd565b610a95565b6102556104d63660046121a4565b610aa2565b6102556104e93660046121a4565b610ac6565b6102556104fc366004612227565b610ae4565b61025561050f3660046121a4565b60096020526000908152604090205481565b61032661052f3660046121a4565b610b0f565b600b54610364906001600160a01b031681565b600c5460009081805b828110156105a457610588600c828154811061056e5761056e612251565b6000918252602090912001546001600160a01b0316610b88565b610592908361227d565b915061059d81612290565b9050610550565b507f00000000000000000000000000000000000000000000000000000000000000006040516370a0823160e01b81523060048201526001600160a01b0391909116906370a0823190602401602060405180830381865afa15801561060c573d6000803e3d6000fd5b505050506040513d601f19601f8201168201806040525081019061063091906122a9565b61063a908261227d565b9392505050565b606060048054610650906122c2565b80601f016020809104026020016040519081016040528092919081815260200182805461067c906122c2565b80156106c95780601f1061069e576101008083540402835291602001916106c9565b820191906000526020600020905b8154815290600101906020018083116106ac57829003601f168201915b5050505050905090565b60006106e0826000610d45565b92915050565b6000336106f4818585610d7f565b5060019392505050565b60006106e0826001610ea3565b600033610719858285610ed3565b610724858585610f4d565b506001949350505050565b610737611103565b82518251811480156107495750815181145b61078a5760405162461bcd60e51b815260206004820152600d60248201526c1b195b99dd1a1cc81a591a5bdd609a1b60448201526064015b60405180910390fd5b60005b818110156107fb576107eb8582815181106107aa576107aa612251565b60200260200101518583815181106107c4576107c4612251565b60200260200101518584815181106107de576107de612251565b602002602001015161115d565b6107f481612290565b905061078d565b5050505050565b600061082e817f00000000000000000000000000000000000000000000000000000000000000006122fc565b905090565b6000336106f48185856108468383610ae4565b610850919061227d565b610d7f565b600c818154811061086557600080fd5b6000918252602090912001546001600160a01b0316905081565b60008061088c8484610897565b905061063a8461117c565b6000806108a384610a95565b905061063a33848684611208565b6108b9611103565b6108c3600061129a565b565b6000806108d184610977565b905061063a33848387611208565b606060058054610650906122c2565b600033816108fc8286610ae4565b90508381101561095c5760405162461bcd60e51b815260206004820152602560248201527f45524332303a2064656372656173656420616c6c6f77616e63652062656c6f77604482015264207a65726f60d81b6064820152608401610781565b6107248286868403610d7f565b6000336106f4818585610f4d565b60006106e0826001610d45565b600061098f82610aa2565b8411156109de5760405162461bcd60e51b815260206004820152601f60248201527f455243343632363a207769746864726177206d6f7265207468616e206d6178006044820152606401610781565b60006109e9856106fe565b90506109f833858588856112ea565b949350505050565b600d8181548110610a1057600080fd5b600091825260209091200154905081565b6000610a2c82610ac6565b841115610a7b5760405162461bcd60e51b815260206004820152601d60248201527f455243343632363a2072656465656d206d6f7265207468616e206d61780000006044820152606401610781565b6000610a86856106d3565b90506109f833858584896112ea565b60006106e0826000610ea3565b6001600160a01b0381166000908152600160205260408120546106e0906000610d45565b6001600160a01b0381166000908152600160205260408120546106e0565b6001600160a01b03918216600090815260026020908152604080832093909416825291909152205490565b610b17611103565b6001600160a01b038116610b7c5760405162461bcd60e51b815260206004820152602660248201527f4f776e61626c653a206e6577206f776e657220697320746865207a65726f206160448201526564647265737360d01b6064820152608401610781565b610b858161129a565b50565b604080516002808252606082018352600092839291906020830190803683370190505090508281600081518110610bc157610bc1612251565b6001600160a01b03909216602092830291909101909101527f000000000000000000000000000000000000000000000000000000000000000081600181518110610c0d57610c0d612251565b6001600160a01b0392831660209182029290920101526040516370a0823160e01b81523060048201526000918516906370a0823190602401602060405180830381865afa158015610c62573d6000803e3d6000fd5b505050506040513d601f19601f82011682018060405250810190610c8691906122a9565b905080600003610c9a575060009392505050565b600b5460405163d06ca61f60e01b81526000916001600160a01b03169063d06ca61f90610ccd9085908790600401612359565b600060405180830381865afa158015610cea573d6000803e3d6000fd5b505050506040513d6000823e601f3d908101601f19168201604052610d129190810190612372565b90508060018251610d2391906123f8565b81518110610d3357610d33612251565b60200260200101519350505050919050565b600061063a610d52610547565b610d5d90600161227d565b610d696000600a6124ef565b600354610d76919061227d565b85919085611300565b6001600160a01b038316610de15760405162461bcd60e51b8152602060048201526024808201527f45524332303a20617070726f76652066726f6d20746865207a65726f206164646044820152637265737360e01b6064820152608401610781565b6001600160a01b038216610e425760405162461bcd60e51b815260206004820152602260248201527f45524332303a20617070726f766520746f20746865207a65726f206164647265604482015261737360f01b6064820152608401610781565b6001600160a01b0383811660008181526002602090815260408083209487168084529482529182902085905590518481527f8c5be1e5ebec7d5bd14f71427d1e84f3dd0314c0f7b2291e5b200ac8c7c3b925910160405180910390a3505050565b600061063a610eb382600a6124ef565b600354610ec0919061227d565b610ec8610547565b610d7690600161227d565b6000610edf8484610ae4565b90506000198114610f475781811015610f3a5760405162461bcd60e51b815260206004820152601d60248201527f45524332303a20696e73756666696369656e7420616c6c6f77616e63650000006044820152606401610781565b610f478484848403610d7f565b50505050565b6001600160a01b038316610fb15760405162461bcd60e51b815260206004820152602560248201527f45524332303a207472616e736665722066726f6d20746865207a65726f206164604482015264647265737360d81b6064820152608401610781565b6001600160a01b0382166110135760405162461bcd60e51b815260206004820152602360248201527f45524332303a207472616e7366657220746f20746865207a65726f206164647260448201526265737360e81b6064820152608401610781565b61101e83838361135d565b6001600160a01b038316600090815260016020526040902054818110156110965760405162461bcd60e51b815260206004820152602660248201527f45524332303a207472616e7366657220616d6f756e7420657863656564732062604482015265616c616e636560d01b6064820152608401610781565b6001600160a01b0380851660008181526001602052604080822086860390559286168082529083902080548601905591517fddf252ad1be2c89b69c2b068fc378daa952ba7f163c4a11628f55a4df523b3ef906110f69086815260200190565b60405180910390a3610f47565b6000546001600160a01b031633146108c35760405162461bcd60e51b815260206004820181905260248201527f4f776e61626c653a2063616c6c6572206973206e6f7420746865206f776e65726044820152606401610781565b821561116d57610f478282611442565b610f478282611600565b505050565b600c5460005b81811015611177576000612710600d83815481106111a2576111a2612251565b9060005260206000200154856111b891906124fe565b6111c2919061252b565b90506111f5600c83815481106111da576111da612251565b6000918252602090912001546001600160a01b031682611442565b50508061120190612290565b9050611182565b6112347f00000000000000000000000000000000000000000000000000000000000000008530856117b0565b61123e838261181b565b826001600160a01b0316846001600160a01b03167fdcbc1c05240f31ff3ad067ef1ee35ce4997762752e3a095284754544f4c709d7848460405161128c929190918252602082015260400190565b60405180910390a350505050565b600080546001600160a01b038381166001600160a01b0319831681178455604051919092169283917f8be0079c531659141344cd1fd0a4f28419497f9722a3daafe3b4186f6b6457e09190a35050565b6112f3826118e8565b6107fb8585858585611974565b60008061130e868686611a34565b905060018360028111156113245761132461254d565b14801561134157506000848061133c5761133c612515565b868809115b156113545761135160018261227d565b90505b95945050505050565b60065461136a904261227d565b6001600160a01b038416600090815260096020526040902054106113d05760405162461bcd60e51b815260206004820152601760248201527f686f6c64206675636b696e672073616e647769636865720000000000000000006044820152606401610781565b6001600160a01b0382166000908152600960209081526040808320429055600754438452600a9092529091205411156111775760405162461bcd60e51b8152602060048201526014602482015273189b1bd8dac8185b1c9958591e481d1c9859195960621b6044820152606401610781565b604080516002808252606080830184529260009291906020830190803683370190505090507f00000000000000000000000000000000000000000000000000000000000000008160008151811061149b5761149b612251565b60200260200101906001600160a01b031690816001600160a01b03168152505083816001815181106114cf576114cf612251565b6001600160a01b039092166020928302919091019091015260007f0000000000000000000000000000000000000000000000000000000000000000600b5460405163095ea7b360e01b81526001600160a01b0391821660048201526024810187905291169063095ea7b3906044016020604051808303816000875af115801561155c573d6000803e3d6000fd5b505050506040513d601f19601f820116820180604052508101906115809190612563565b50600b546040516338ed173960e01b81526001600160a01b03909116906338ed1739906115b99087908590879030904290600401612580565b6000604051808303816000875af11580156115d8573d6000803e3d6000fd5b505050506040513d6000823e601f3d908101601f191682016040526113549190810190612372565b60408051600280825260608083018452926000929190602083019080368337019050509050838160008151811061163957611639612251565b6001600160a01b03909216602092830291909101909101527f00000000000000000000000000000000000000000000000000000000000000008160018151811061168557611685612251565b6001600160a01b0392831660209182029290920101526040516370a0823160e01b81523060048201526000918616906370a0823190602401602060405180830381865afa1580156116da573d6000803e3d6000fd5b505050506040513d601f19601f820116820180604052508101906116fe91906122a9565b600b5460405163095ea7b360e01b81526001600160a01b0391821660048201526024810183905291925086169063095ea7b3906044016020604051808303816000875af1158015611753573d6000803e3d6000fd5b505050506040513d601f19601f820116820180604052508101906117779190612563565b50600b54604051634401edf760e11b81526001600160a01b0390911690638803dbee906115b99087908590879033904290600401612580565b6040516001600160a01b0380851660248301528316604482015260648101829052610f479085906323b872dd60e01b906084015b60408051601f198184030181529190526020810180516001600160e01b03166001600160e01b031990931692909217909152611b1e565b6001600160a01b0382166118715760405162461bcd60e51b815260206004820152601f60248201527f45524332303a206d696e7420746f20746865207a65726f2061646472657373006044820152606401610781565b61187d6000838361135d565b806003600082825461188f919061227d565b90915550506001600160a01b0382166000818152600160209081526040808320805486019055518481527fddf252ad1be2c89b69c2b068fc378daa952ba7f163c4a11628f55a4df523b3ef910160405180910390a35050565b600c5460005b81811015611177576000612710600d838154811061190e5761190e612251565b90600052602060002001548561192491906124fe565b61192e919061252b565b9050611961600c838154811061194657611946612251565b6000918252602090912001546001600160a01b031682611600565b50508061196d90612290565b90506118ee565b826001600160a01b0316856001600160a01b03161461199857611998838683610ed3565b6119a28382611bf3565b6119cd7f00000000000000000000000000000000000000000000000000000000000000008584611d33565b826001600160a01b0316846001600160a01b0316866001600160a01b03167ffbde797d201c681b91056529119e0b02407c7bb96a4a2c75c01fc9667232c8db8585604051611a25929190918252602082015260400190565b60405180910390a45050505050565b6000808060001985870985870292508281108382030391505080600003611a6e57838281611a6457611a64612515565b049250505061063a565b808411611ab55760405162461bcd60e51b81526020600482015260156024820152744d6174683a206d756c446976206f766572666c6f7760581b6044820152606401610781565b60008486880960026001871981018816978890046003810283188082028403028082028403028082028403028082028403028082028403029081029092039091026000889003889004909101858311909403939093029303949094049190911702949350505050565b6000611b73826040518060400160405280602081526020017f5361666545524332303a206c6f772d6c6576656c2063616c6c206661696c6564815250856001600160a01b0316611d639092919063ffffffff16565b9050805160001480611b94575080806020019051810190611b949190612563565b6111775760405162461bcd60e51b815260206004820152602a60248201527f5361666545524332303a204552433230206f7065726174696f6e20646964206e6044820152691bdd081cdd58d8d9595960b21b6064820152608401610781565b6001600160a01b038216611c535760405162461bcd60e51b815260206004820152602160248201527f45524332303a206275726e2066726f6d20746865207a65726f206164647265736044820152607360f81b6064820152608401610781565b611c5f8260008361135d565b6001600160a01b03821660009081526001602052604090205481811015611cd35760405162461bcd60e51b815260206004820152602260248201527f45524332303a206275726e20616d6f756e7420657863656564732062616c616e604482015261636560f01b6064820152608401610781565b6001600160a01b03831660008181526001602090815260408083208686039055600380548790039055518581529192917fddf252ad1be2c89b69c2b068fc378daa952ba7f163c4a11628f55a4df523b3ef910160405180910390a3505050565b6040516001600160a01b03831660248201526044810182905261117790849063a9059cbb60e01b906064016117e4565b60606109f8848460008585600080866001600160a01b03168587604051611d8a91906125bc565b60006040518083038185875af1925050503d8060008114611dc7576040519150601f19603f3d011682016040523d82523d6000602084013e611dcc565b606091505b5091509150611ddd87838387611de8565b979650505050505050565b60608315611e57578251600003611e50576001600160a01b0385163b611e505760405162461bcd60e51b815260206004820152601d60248201527f416464726573733a2063616c6c20746f206e6f6e2d636f6e74726163740000006044820152606401610781565b50816109f8565b6109f88383815115611e6c5781518083602001fd5b8060405162461bcd60e51b81526004016107819190611eaa565b60005b83811015611ea1578181015183820152602001611e89565b50506000910152565b6020815260008251806020840152611ec9816040850160208701611e86565b601f01601f19169190910160400192915050565b600060208284031215611eef57600080fd5b5035919050565b80356001600160a01b0381168114611f0d57600080fd5b919050565b60008060408385031215611f2557600080fd5b611f2e83611ef6565b946020939093013593505050565b600080600060608486031215611f5157600080fd5b611f5a84611ef6565b9250611f6860208501611ef6565b9150604084013590509250925092565b634e487b7160e01b600052604160045260246000fd5b604051601f8201601f1916810167ffffffffffffffff81118282101715611fb757611fb7611f78565b604052919050565b600067ffffffffffffffff821115611fd957611fd9611f78565b5060051b60200190565b8015158114610b8557600080fd5b600082601f83011261200257600080fd5b8135602061201761201283611fbf565b611f8e565b82815260059290921b8401810191818101908684111561203657600080fd5b8286015b848110156120585761204b81611ef6565b835291830191830161203a565b509695505050505050565b600082601f83011261207457600080fd5b8135602061208461201283611fbf565b82815260059290921b840181019181810190868411156120a357600080fd5b8286015b8481101561205857803583529183019183016120a7565b6000806000606084860312156120d357600080fd5b833567ffffffffffffffff808211156120eb57600080fd5b818601915086601f8301126120ff57600080fd5b8135602061210f61201283611fbf565b82815260059290921b8401810191818101908a84111561212e57600080fd5b948201945b8386101561215557853561214681611fe3565b82529482019490820190612133565b9750508701359250508082111561216b57600080fd5b61217787838801611ff1565b9350604086013591508082111561218d57600080fd5b5061219a86828701612063565b9150509250925092565b6000602082840312156121b657600080fd5b61063a82611ef6565b600080604083850312156121d257600080fd5b823591506121e260208401611ef6565b90509250929050565b60008060006060848603121561220057600080fd5b8335925061221060208501611ef6565b915061221e60408501611ef6565b90509250925092565b6000806040838503121561223a57600080fd5b61224383611ef6565b91506121e260208401611ef6565b634e487b7160e01b600052603260045260246000fd5b634e487b7160e01b600052601160045260246000fd5b808201808211156106e0576106e0612267565b6000600182016122a2576122a2612267565b5060010190565b6000602082840312156122bb57600080fd5b5051919050565b600181811c908216806122d657607f821691505b6020821081036122f657634e487b7160e01b600052602260045260246000fd5b50919050565b60ff81811683821601908111156106e0576106e0612267565b600081518084526020808501945080840160005b8381101561234e5781516001600160a01b031687529582019590820190600101612329565b509495945050505050565b8281526040602082015260006109f86040830184612315565b6000602080838503121561238557600080fd5b825167ffffffffffffffff81111561239c57600080fd5b8301601f810185136123ad57600080fd5b80516123bb61201282611fbf565b81815260059190911b820183019083810190878311156123da57600080fd5b928401925b82841015611ddd578351825292840192908401906123df565b818103818111156106e0576106e0612267565b600181815b8085111561244657816000190482111561242c5761242c612267565b8085161561243957918102915b93841c9390800290612410565b509250929050565b60008261245d575060016106e0565b8161246a575060006106e0565b8160018114612480576002811461248a576124a6565b60019150506106e0565b60ff84111561249b5761249b612267565b50506001821b6106e0565b5060208310610133831016604e8410600b84101617156124c9575081810a6106e0565b6124d3838361240b565b80600019048211156124e7576124e7612267565b029392505050565b600061063a60ff84168361244e565b80820281158282048414176106e0576106e0612267565b634e487b7160e01b600052601260045260246000fd5b60008261254857634e487b7160e01b600052601260045260246000fd5b500490565b634e487b7160e01b600052602160045260246000fd5b60006020828403121561257557600080fd5b815161063a81611fe3565b85815284602082015260a06040820152600061259f60a0830186612315565b6001600160a01b0394909416606083015250608001529392505050565b600082516125ce818460208701611e86565b919091019291505056fea26469706673582212208e68d836cbfaf17ee1089e52b2a1cdf33a65a811d1e4625a4a37a602cccc9c9a64736f6c63430008130033","linkReferences":{}},"methodIdentifiers":{"actionsPerBlock(uint256)":"288fcba1","allowance(address,address)":"dd62ed3e","approve(address,uint256)":"095ea7b3","asset()":"38d52e0f","balanceOf(address)":"70a08231","convertToAssets(uint256)":"07a2d13a","convertToShares(uint256)":"c6e6f592","decimals()":"313ce567","decreaseAllowance(address,uint256)":"a457c2d7","deposit(uint256,address)":"6e553f65","depositAndOperate(uint256,address)":"5da9b72f","holdTime()":"097d5155","increaseAllowance(address,uint256)":"39509351","lastBuyTimestamp(address)":"ef7898d0","maxActionsPerBlock()":"a7dc2cf5","maxDeposit(address)":"402d267d","maxMint(address)":"c63d75b6","maxRedeem(address)":"d905777e","maxWithdraw(address)":"ce96cb77","minLiquidity()":"252cf2d2","mint(uint256,address)":"94bf804d","name()":"06fdde03","operateBatch(bool[],address[],uint256[])":"2929ee82","owner()":"8da5cb5b","previewDeposit(uint256)":"ef8b30f7","previewMint(uint256)":"b3d7f6b9","previewRedeem(uint256)":"4cdad506","previewWithdraw(uint256)":"0a28a477","redeem(uint256,address,address)":"ba087652","renounceOwnership()":"715018a6","router()":"f887ea40","symbol()":"95d89b41","tokens(uint256)":"4f64b2be","totalAssets()":"01e1d114","totalSupply()":"18160ddd","transfer(address,uint256)":"a9059cbb","transferFrom(address,address,uint256)":"23b872dd","transferOwnership(address)":"f2fde38b","weights(uint256)":"b5f163ff","withdraw(uint256,address,address)":"b460af94"},"id":38}