{"abi":[{"type":"constructor","inputs":[],"stateMutability":"nonpayable"},{"type":"function","name":"DOMAIN_SEPARATOR","inputs":[],"outputs":[{"name":"","type":"bytes32","internalType":"bytes32"}],"stateMutability":"view"},{"type":"function","name":"allowance","inputs":[{"name":"owner","type":"address","internalType":"address"},{"name":"spender","type":"address","internalType":"address"}],"outputs":[{"name":"","type":"uint256","internalType":"uint256"}],"stateMutability":"view"},{"type":"function","name":"approve","inputs":[{"name":"spender","type":"address","internalType":"address"},{"name":"amount","type":"uint256","internalType":"uint256"}],"outputs":[{"name":"","type":"bool","internalType":"bool"}],"stateMutability":"nonpayable"},{"type":"function","name":"balanceOf","inputs":[{"name":"account","type":"address","internalType":"address"}],"outputs":[{"name":"","type":"uint256","internalType":"uint256"}],"stateMutability":"view"},{"type":"function","name":"burn","inputs":[{"name":"amount","type":"uint256","internalType":"uint256"}],"outputs":[],"stateMutability":"nonpayable"},{"type":"function","name":"burnFrom","inputs":[{"name":"account","type":"address","internalType":"address"},{"name":"amount","type":"uint256","internalType":"uint256"}],"outputs":[],"stateMutability":"nonpayable"},{"type":"function","name":"decimals","inputs":[],"outputs":[{"name":"","type":"uint8","internalType":"uint8"}],"stateMutability":"view"},{"type":"function","name":"decreaseAllowance","inputs":[{"name":"spender","type":"address","internalType":"address"},{"name":"subtractedValue","type":"uint256","internalType":"uint256"}],"outputs":[{"name":"","type":"bool","internalType":"bool"}],"stateMutability":"nonpayable"},{"type":"function","name":"eip712Domain","inputs":[],"outputs":[{"name":"fields","type":"bytes1","internalType":"bytes1"},{"name":"name","type":"string","internalType":"string"},{"name":"version","type":"string","internalType":"string"},{"name":"chainId","type":"uint256","internalType":"uint256"},{"name":"verifyingContract","type":"address","internalType":"address"},{"name":"salt","type":"bytes32","internalType":"bytes32"},{"name":"extensions","type":"uint256[]","internalType":"uint256[]"}],"stateMutability":"view"},{"type":"function","name":"increaseAllowance","inputs":[{"name":"spender","type":"address","internalType":"address"},{"name":"addedValue","type":"uint256","internalType":"uint256"}],"outputs":[{"name":"","type":"bool","internalType":"bool"}],"stateMutability":"nonpayable"},{"type":"function","name":"mint","inputs":[{"name":"to","type":"address","internalType":"address"},{"name":"amount","type":"uint256","internalType":"uint256"}],"outputs":[],"stateMutability":"nonpayable"},{"type":"function","name":"name","inputs":[],"outputs":[{"name":"","type":"string","internalType":"string"}],"stateMutability":"view"},{"type":"function","name":"nonces","inputs":[{"name":"owner","type":"address","internalType":"address"}],"outputs":[{"name":"","type":"uint256","internalType":"uint256"}],"stateMutability":"view"},{"type":"function","name":"permit","inputs":[{"name":"owner","type":"address","internalType":"address"},{"name":"spender","type":"address","internalType":"address"},{"name":"value","type":"uint256","internalType":"uint256"},{"name":"deadline","type":"uint256","internalType":"uint256"},{"name":"v","type":"uint8","internalType":"uint8"},{"name":"r","type":"bytes32","internalType":"bytes32"},{"name":"s","type":"bytes32","internalType":"bytes32"}],"outputs":[],"stateMutability":"nonpayable"},{"type":"function","name":"symbol","inputs":[],"outputs":[{"name":"","type":"string","internalType":"string"}],"stateMutability":"view"},{"type":"function","name":"totalSupply","inputs":[],"outputs":[{"name":"","type":"uint256","internalType":"uint256"}],"stateMutability":"view"},{"type":"function","name":"transfer","inputs":[{"name":"to","type":"address","internalType":"address"},{"name":"amount","type":"uint256","internalType":"uint256"}],"outputs":[{"name":"","type":"bool","internalType":"bool"}],"stateMutability":"nonpayable"},{"type":"function","name":"transferFrom","inputs":[{"name":"from","type":"address","internalType":"address"},{"name":"to","type":"address","internalType":"address"},{"name":"amount","type":"uint256","internalType":"uint256"}],"outputs":[{"name":"","type":"bool","internalType":"bool"}],"stateMutability":"nonpayable"},{"type":"event","name":"Approval","inputs":[{"name":"owner","type":"address","indexed":true,"internalType":"address"},{"name":"spender","type":"address","indexed":true,"internalType":"address"},{"name":"value","type":"uint256","indexed":false,"internalType":"uint256"}],"anonymous":false},{"type":"event","name":"EIP712DomainChanged","inputs":[],"anonymous":false},{"type":"event","name":"Transfer","inputs":[{"name":"from","type":"address","indexed":true,"internalType":"address"},{"name":"to","type":"address","indexed":true,"internalType":"address"},{"name":"value","type":"uint256","indexed":false,"internalType":"uint256"}],"anonymous":false},{"type":"error","name":"InvalidShortString","inputs":[]},{"type":"error","name":"StringTooLong","inputs":[{"name":"str","type":"string","internalType":"string"}]}],"bytecode":{"object":"0x6101606040523480156200001257600080fd5b50604051806040016040528060048152602001631554d11560e21b81525080604051806040016040528060018152602001603160f81b815250604051806040016040528060048152602001631554d11560e21b815250604051806040016040528060048152602001631554d11560e21b815250816003908162000096919062000290565b506004620000a5828262000290565b50620000b79150839050600562000166565b61012052620000c881600662000166565b61014052815160208084019190912060e052815190820120610100524660a0526200015660e05161010051604080517f8b73c3c69bb8fe3d512ecc4cf759cc79239f7b179b0ffacaa9a75d522b39400f60208201529081019290925260608201524660808201523060a082015260009060c00160405160208183030381529060405280519060200120905090565b60805250503060c05250620003d1565b600060208351101562000186576200017e836200019f565b905062000199565b8162000193848262000290565b5060ff90505b92915050565b600080829050601f81511115620001d6578260405163305a27a960e01b8152600401620001cd91906200035c565b60405180910390fd5b8051620001e382620003ac565b179392505050565b634e487b7160e01b600052604160045260246000fd5b600181811c908216806200021657607f821691505b6020821081036200023757634e487b7160e01b600052602260045260246000fd5b50919050565b601f8211156200028b57600081815260208120601f850160051c81016020861015620002665750805b601f850160051c820191505b81811015620002875782815560010162000272565b5050505b505050565b81516001600160401b03811115620002ac57620002ac620001eb565b620002c481620002bd845462000201565b846200023d565b602080601f831160018114620002fc5760008415620002e35750858301515b600019600386901b1c1916600185901b17855562000287565b600085815260208120601f198616915b828110156200032d578886015182559484019460019091019084016200030c565b50858210156200034c5787850151600019600388901b60f8161c191681555b5050505050600190811b01905550565b600060208083528351808285015260005b818110156200038b578581018301518582016040015282016200036d565b506000604082860101526040601f19601f8301168501019250505092915050565b80516020808301519190811015620002375760001960209190910360031b1b16919050565b60805160a05160c05160e05161010051610120516101405161137c6200042c6000396000610419015260006103ee01526000610ab201526000610a8a015260006109e501526000610a0f01526000610a39015261137c6000f3fe608060405234801561001057600080fd5b50600436106101165760003560e01c806370a08231116100a257806395d89b411161007157806395d89b411461023d578063a457c2d714610245578063a9059cbb14610258578063d505accf1461026b578063dd62ed3e1461027e57600080fd5b806370a08231146101d357806379cc6790146101fc5780637ecebe001461020f57806384b0196e1461022257600080fd5b8063313ce567116100e9578063313ce567146101815780633644e51514610190578063395093511461019857806340c10f19146101ab57806342966c68146101c057600080fd5b806306fdde031461011b578063095ea7b31461013957806318160ddd1461015c57806323b872dd1461016e575b600080fd5b610123610291565b60405161013091906110cf565b60405180910390f35b61014c610147366004611105565b610323565b6040519015158152602001610130565b6002545b604051908152602001610130565b61014c61017c36600461112f565b61033d565b60405160128152602001610130565b610160610361565b61014c6101a6366004611105565b610370565b6101be6101b9366004611105565b610392565b005b6101be6101ce36600461116b565b6103a0565b6101606101e1366004611184565b6001600160a01b031660009081526020819052604090205490565b6101be61020a366004611105565b6103ad565b61016061021d366004611184565b6103c2565b61022a6103e0565b604051610130979695949392919061119f565b610123610469565b61014c610253366004611105565b610478565b61014c610266366004611105565b6104f8565b6101be610279366004611235565b610506565b61016061028c3660046112a8565b61066a565b6060600380546102a0906112db565b80601f01602080910402602001604051908101604052809291908181526020018280546102cc906112db565b80156103195780601f106102ee57610100808354040283529160200191610319565b820191906000526020600020905b8154815290600101906020018083116102fc57829003601f168201915b5050505050905090565b600033610331818585610695565b60019150505b92915050565b60003361034b8582856107ba565b610356858585610834565b506001949350505050565b600061036b6109d8565b905090565b600033610331818585610383838361066a565b61038d919061130f565b610695565b61039c8282610b03565b5050565b6103aa3382610bc2565b50565b6103b88233836107ba565b61039c8282610bc2565b6001600160a01b038116600090815260076020526040812054610337565b6000606080828080836104147f00000000000000000000000000000000000000000000000000000000000000006005610cec565b61043f7f00000000000000000000000000000000000000000000000000000000000000006006610cec565b60408051600080825260208201909252600f60f81b9b939a50919850469750309650945092509050565b6060600480546102a0906112db565b60003381610486828661066a565b9050838110156104eb5760405162461bcd60e51b815260206004820152602560248201527f45524332303a2064656372656173656420616c6c6f77616e63652062656c6f77604482015264207a65726f60d81b60648201526084015b60405180910390fd5b6103568286868403610695565b600033610331818585610834565b834211156105565760405162461bcd60e51b815260206004820152601d60248201527f45524332305065726d69743a206578706972656420646561646c696e6500000060448201526064016104e2565b60007f6e71edae12b1b97f4d1f60370fef10105fa2faae0126114a169c64845d6126c98888886105858c610d97565b6040805160208101969096526001600160a01b0394851690860152929091166060840152608083015260a082015260c0810186905260e00160405160208183030381529060405280519060200120905060006105e082610dbf565b905060006105f082878787610dec565b9050896001600160a01b0316816001600160a01b0316146106535760405162461bcd60e51b815260206004820152601e60248201527f45524332305065726d69743a20696e76616c6964207369676e6174757265000060448201526064016104e2565b61065e8a8a8a610695565b50505050505050505050565b6001600160a01b03918216600090815260016020908152604080832093909416825291909152205490565b6001600160a01b0383166106f75760405162461bcd60e51b8152602060048201526024808201527f45524332303a20617070726f76652066726f6d20746865207a65726f206164646044820152637265737360e01b60648201526084016104e2565b6001600160a01b0382166107585760405162461bcd60e51b815260206004820152602260248201527f45524332303a20617070726f766520746f20746865207a65726f206164647265604482015261737360f01b60648201526084016104e2565b6001600160a01b0383811660008181526001602090815260408083209487168084529482529182902085905590518481527f8c5be1e5ebec7d5bd14f71427d1e84f3dd0314c0f7b2291e5b200ac8c7c3b92591015b60405180910390a3505050565b60006107c6848461066a565b9050600019811461082e57818110156108215760405162461bcd60e51b815260206004820152601d60248201527f45524332303a20696e73756666696369656e7420616c6c6f77616e636500000060448201526064016104e2565b61082e8484848403610695565b50505050565b6001600160a01b0383166108985760405162461bcd60e51b815260206004820152602560248201527f45524332303a207472616e736665722066726f6d20746865207a65726f206164604482015264647265737360d81b60648201526084016104e2565b6001600160a01b0382166108fa5760405162461bcd60e51b815260206004820152602360248201527f45524332303a207472616e7366657220746f20746865207a65726f206164647260448201526265737360e81b60648201526084016104e2565b6001600160a01b038316600090815260208190526040902054818110156109725760405162461bcd60e51b815260206004820152602660248201527f45524332303a207472616e7366657220616d6f756e7420657863656564732062604482015265616c616e636560d01b60648201526084016104e2565b6001600160a01b03848116600081815260208181526040808320878703905593871680835291849020805487019055925185815290927fddf252ad1be2c89b69c2b068fc378daa952ba7f163c4a11628f55a4df523b3ef910160405180910390a361082e565b6000306001600160a01b037f000000000000000000000000000000000000000000000000000000000000000016148015610a3157507f000000000000000000000000000000000000000000000000000000000000000046145b15610a5b57507f000000000000000000000000000000000000000000000000000000000000000090565b61036b604080517f8b73c3c69bb8fe3d512ecc4cf759cc79239f7b179b0ffacaa9a75d522b39400f60208201527f0000000000000000000000000000000000000000000000000000000000000000918101919091527f000000000000000000000000000000000000000000000000000000000000000060608201524660808201523060a082015260009060c00160405160208183030381529060405280519060200120905090565b6001600160a01b038216610b595760405162461bcd60e51b815260206004820152601f60248201527f45524332303a206d696e7420746f20746865207a65726f20616464726573730060448201526064016104e2565b8060026000828254610b6b919061130f565b90915550506001600160a01b038216600081815260208181526040808320805486019055518481527fddf252ad1be2c89b69c2b068fc378daa952ba7f163c4a11628f55a4df523b3ef910160405180910390a35050565b6001600160a01b038216610c225760405162461bcd60e51b815260206004820152602160248201527f45524332303a206275726e2066726f6d20746865207a65726f206164647265736044820152607360f81b60648201526084016104e2565b6001600160a01b03821660009081526020819052604090205481811015610c965760405162461bcd60e51b815260206004820152602260248201527f45524332303a206275726e20616d6f756e7420657863656564732062616c616e604482015261636560f01b60648201526084016104e2565b6001600160a01b0383166000818152602081815260408083208686039055600280548790039055518581529192917fddf252ad1be2c89b69c2b068fc378daa952ba7f163c4a11628f55a4df523b3ef91016107ad565b606060ff8314610d0657610cff83610e14565b9050610337565b818054610d12906112db565b80601f0160208091040260200160405190810160405280929190818152602001828054610d3e906112db565b8015610d8b5780601f10610d6057610100808354040283529160200191610d8b565b820191906000526020600020905b815481529060010190602001808311610d6e57829003601f168201915b50505050509050610337565b6001600160a01b03811660009081526007602052604090208054600181018255905b50919050565b6000610337610dcc6109d8565b8360405161190160f01b8152600281019290925260228201526042902090565b6000806000610dfd87878787610e53565b91509150610e0a81610f17565b5095945050505050565b60606000610e2183611061565b604080516020808252818301909252919250600091906020820181803683375050509182525060208101929092525090565b6000807f7fffffffffffffffffffffffffffffff5d576e7357a4501ddfe92f46681b20a0831115610e8a5750600090506003610f0e565b6040805160008082526020820180845289905260ff881692820192909252606081018690526080810185905260019060a0016020604051602081039080840390855afa158015610ede573d6000803e3d6000fd5b5050604051601f1901519150506001600160a01b038116610f0757600060019250925050610f0e565b9150600090505b94509492505050565b6000816004811115610f2b57610f2b611330565b03610f335750565b6001816004811115610f4757610f47611330565b03610f945760405162461bcd60e51b815260206004820152601860248201527f45434453413a20696e76616c6964207369676e6174757265000000000000000060448201526064016104e2565b6002816004811115610fa857610fa8611330565b03610ff55760405162461bcd60e51b815260206004820152601f60248201527f45434453413a20696e76616c6964207369676e6174757265206c656e6774680060448201526064016104e2565b600381600481111561100957611009611330565b036103aa5760405162461bcd60e51b815260206004820152602260248201527f45434453413a20696e76616c6964207369676e6174757265202773272076616c604482015261756560f01b60648201526084016104e2565b600060ff8216601f81111561033757604051632cd44ac360e21b815260040160405180910390fd5b6000815180845260005b818110156110af57602081850181015186830182015201611093565b506000602082860101526020601f19601f83011685010191505092915050565b6020815260006110e26020830184611089565b9392505050565b80356001600160a01b038116811461110057600080fd5b919050565b6000806040838503121561111857600080fd5b611121836110e9565b946020939093013593505050565b60008060006060848603121561114457600080fd5b61114d846110e9565b925061115b602085016110e9565b9150604084013590509250925092565b60006020828403121561117d57600080fd5b5035919050565b60006020828403121561119657600080fd5b6110e2826110e9565b60ff60f81b881681526000602060e0818401526111bf60e084018a611089565b83810360408501526111d1818a611089565b606085018990526001600160a01b038816608086015260a0850187905284810360c0860152855180825283870192509083019060005b8181101561122357835183529284019291840191600101611207565b50909c9b505050505050505050505050565b600080600080600080600060e0888a03121561125057600080fd5b611259886110e9565b9650611267602089016110e9565b95506040880135945060608801359350608088013560ff8116811461128b57600080fd5b9699959850939692959460a0840135945060c09093013592915050565b600080604083850312156112bb57600080fd5b6112c4836110e9565b91506112d2602084016110e9565b90509250929050565b600181811c908216806112ef57607f821691505b602082108103610db957634e487b7160e01b600052602260045260246000fd5b8082018082111561033757634e487b7160e01b600052601160045260246000fd5b634e487b7160e01b600052602160045260246000fdfea26469706673582212202aa4d5b028999474da5e65f3539f5540fad0b0e335536908b3acd714e9043ad564736f6c63430008130033","linkReferences":{}},"methodIdentifiers":{"DOMAIN_SEPARATOR()":"3644e515","allowance(address,address)":"dd62ed3e","approve(address,uint256)":"095ea7b3","balanceOf(address)":"70a08231","burn(uint256)":"42966c68","burnFrom(address,uint256)":"79cc6790","decimals()":"313ce567","decreaseAllowance(address,uint256)":"a457c2d7","eip712Domain()":"84b0196e","increaseAllowance(address,uint256)":"39509351","mint(address,uint256)":"40c10f19","name()":"06fdde03","nonces(address)":"7ecebe00","permit(address,address,uint256,uint256,uint8,bytes32,bytes32)":"d505accf","symbol()":"95d89b41","totalSupply()":"18160ddd","transfer(address,uint256)":"a9059cbb","transferFrom(address,address,uint256)":"23b872dd"},"id":41}